{
  "_format": "hh-sol-artifact-1",
  "contractName": "CyberValleyEventTicket",
  "sourceName": "contracts/CyberValleyEventTicket.sol",
  "abi": [
    {
      "inputs": [
        {
          "internalType": "string",
          "name": "name",
          "type": "string"
        },
        {
          "internalType": "string",
          "name": "symbol",
          "type": "string"
        },
        {
          "internalType": "address",
          "name": "_master",
          "type": "address"
        }
      ],
      "stateMutability": "nonpayable",
      "type": "constructor"
    },
    {
      "inputs": [],
      "name": "AccessControlBadConfirmation",
      "type": "error"
    },
    {
      "inputs": [
        {
          "internalType": "address",
          "name": "account",
          "type": "address"
        },
        {
          "internalType": "bytes32",
          "name": "neededRole",
          "type": "bytes32"
        }
      ],
      "name": "AccessControlUnauthorizedAccount",
      "type": "error"
    },
    {
      "inputs": [
        {
          "internalType": "address",
          "name": "sender",
          "type": "address"
        },
        {
          "internalType": "uint256",
          "name": "tokenId",
          "type": "uint256"
        },
        {
          "internalType": "address",
          "name": "owner",
          "type": "address"
        }
      ],
      "name": "ERC721IncorrectOwner",
      "type": "error"
    },
    {
      "inputs": [
        {
          "internalType": "address",
          "name": "operator",
          "type": "address"
        },
        {
          "internalType": "uint256",
          "name": "tokenId",
          "type": "uint256"
        }
      ],
      "name": "ERC721InsufficientApproval",
      "type": "error"
    },
    {
      "inputs": [
        {
          "internalType": "address",
          "name": "approver",
          "type": "address"
        }
      ],
      "name": "ERC721InvalidApprover",
      "type": "error"
    },
    {
      "inputs": [
        {
          "internalType": "address",
          "name": "operator",
          "type": "address"
        }
      ],
      "name": "ERC721InvalidOperator",
      "type": "error"
    },
    {
      "inputs": [
        {
          "internalType": "address",
          "name": "owner",
          "type": "address"
        }
      ],
      "name": "ERC721InvalidOwner",
      "type": "error"
    },
    {
      "inputs": [
        {
          "internalType": "address",
          "name": "receiver",
          "type": "address"
        }
      ],
      "name": "ERC721InvalidReceiver",
      "type": "error"
    },
    {
      "inputs": [
        {
          "internalType": "address",
          "name": "sender",
          "type": "address"
        }
      ],
      "name": "ERC721InvalidSender",
      "type": "error"
    },
    {
      "inputs": [
        {
          "internalType": "uint256",
          "name": "tokenId",
          "type": "uint256"
        }
      ],
      "name": "ERC721NonexistentToken",
      "type": "error"
    },
    {
      "anonymous": false,
      "inputs": [
        {
          "indexed": true,
          "internalType": "address",
          "name": "owner",
          "type": "address"
        },
        {
          "indexed": true,
          "internalType": "address",
          "name": "approved",
          "type": "address"
        },
        {
          "indexed": true,
          "internalType": "uint256",
          "name": "tokenId",
          "type": "uint256"
        }
      ],
      "name": "Approval",
      "type": "event"
    },
    {
      "anonymous": false,
      "inputs": [
        {
          "indexed": true,
          "internalType": "address",
          "name": "owner",
          "type": "address"
        },
        {
          "indexed": true,
          "internalType": "address",
          "name": "operator",
          "type": "address"
        },
        {
          "indexed": false,
          "internalType": "bool",
          "name": "approved",
          "type": "bool"
        }
      ],
      "name": "ApprovalForAll",
      "type": "event"
    },
    {
      "anonymous": false,
      "inputs": [
        {
          "indexed": true,
          "internalType": "bytes32",
          "name": "role",
          "type": "bytes32"
        },
        {
          "indexed": true,
          "internalType": "bytes32",
          "name": "previousAdminRole",
          "type": "bytes32"
        },
        {
          "indexed": true,
          "internalType": "bytes32",
          "name": "newAdminRole",
          "type": "bytes32"
        }
      ],
      "name": "RoleAdminChanged",
      "type": "event"
    },
    {
      "anonymous": false,
      "inputs": [
        {
          "indexed": true,
          "internalType": "bytes32",
          "name": "role",
          "type": "bytes32"
        },
        {
          "indexed": true,
          "internalType": "address",
          "name": "account",
          "type": "address"
        },
        {
          "indexed": true,
          "internalType": "address",
          "name": "sender",
          "type": "address"
        }
      ],
      "name": "RoleGranted",
      "type": "event"
    },
    {
      "anonymous": false,
      "inputs": [
        {
          "indexed": true,
          "internalType": "bytes32",
          "name": "role",
          "type": "bytes32"
        },
        {
          "indexed": true,
          "internalType": "address",
          "name": "account",
          "type": "address"
        },
        {
          "indexed": true,
          "internalType": "address",
          "name": "sender",
          "type": "address"
        }
      ],
      "name": "RoleRevoked",
      "type": "event"
    },
    {
      "anonymous": false,
      "inputs": [
        {
          "indexed": false,
          "internalType": "uint256",
          "name": "eventId",
          "type": "uint256"
        },
        {
          "indexed": false,
          "internalType": "uint256",
          "name": "ticketId",
          "type": "uint256"
        },
        {
          "indexed": false,
          "internalType": "address",
          "name": "owner",
          "type": "address"
        },
        {
          "indexed": false,
          "internalType": "bytes32",
          "name": "digest",
          "type": "bytes32"
        },
        {
          "indexed": false,
          "internalType": "uint8",
          "name": "hashFunction",
          "type": "uint8"
        },
        {
          "indexed": false,
          "internalType": "uint8",
          "name": "size",
          "type": "uint8"
        }
      ],
      "name": "TicketMinted",
      "type": "event"
    },
    {
      "anonymous": false,
      "inputs": [
        {
          "indexed": false,
          "internalType": "uint256",
          "name": "ticketId",
          "type": "uint256"
        }
      ],
      "name": "TicketRedeemed",
      "type": "event"
    },
    {
      "anonymous": false,
      "inputs": [
        {
          "indexed": true,
          "internalType": "address",
          "name": "from",
          "type": "address"
        },
        {
          "indexed": true,
          "internalType": "address",
          "name": "to",
          "type": "address"
        },
        {
          "indexed": true,
          "internalType": "uint256",
          "name": "tokenId",
          "type": "uint256"
        }
      ],
      "name": "Transfer",
      "type": "event"
    },
    {
      "inputs": [],
      "name": "DEFAULT_ADMIN_ROLE",
      "outputs": [
        {
          "internalType": "bytes32",
          "name": "",
          "type": "bytes32"
        }
      ],
      "stateMutability": "view",
      "type": "function"
    },
    {
      "inputs": [],
      "name": "EVENT_MANAGER_ROLE",
      "outputs": [
        {
          "internalType": "bytes32",
          "name": "",
          "type": "bytes32"
        }
      ],
      "stateMutability": "view",
      "type": "function"
    },
    {
      "inputs": [],
      "name": "MASTER_ROLE",
      "outputs": [
        {
          "internalType": "bytes32",
          "name": "",
          "type": "bytes32"
        }
      ],
      "stateMutability": "view",
      "type": "function"
    },
    {
      "inputs": [],
      "name": "STAFF_ROLE",
      "outputs": [
        {
          "internalType": "bytes32",
          "name": "",
          "type": "bytes32"
        }
      ],
      "stateMutability": "view",
      "type": "function"
    },
    {
      "inputs": [
        {
          "internalType": "address",
          "name": "to",
          "type": "address"
        },
        {
          "internalType": "uint256",
          "name": "tokenId",
          "type": "uint256"
        }
      ],
      "name": "approve",
      "outputs": [],
      "stateMutability": "nonpayable",
      "type": "function"
    },
    {
      "inputs": [
        {
          "internalType": "address",
          "name": "owner",
          "type": "address"
        }
      ],
      "name": "balanceOf",
      "outputs": [
        {
          "internalType": "uint256",
          "name": "",
          "type": "uint256"
        }
      ],
      "stateMutability": "view",
      "type": "function"
    },
    {
      "inputs": [],
      "name": "eventManagerAddress",
      "outputs": [
        {
          "internalType": "address",
          "name": "",
          "type": "address"
        }
      ],
      "stateMutability": "view",
      "type": "function"
    },
    {
      "inputs": [
        {
          "internalType": "uint256",
          "name": "tokenId",
          "type": "uint256"
        }
      ],
      "name": "getApproved",
      "outputs": [
        {
          "internalType": "address",
          "name": "",
          "type": "address"
        }
      ],
      "stateMutability": "view",
      "type": "function"
    },
    {
      "inputs": [
        {
          "internalType": "bytes32",
          "name": "role",
          "type": "bytes32"
        }
      ],
      "name": "getRoleAdmin",
      "outputs": [
        {
          "internalType": "bytes32",
          "name": "",
          "type": "bytes32"
        }
      ],
      "stateMutability": "view",
      "type": "function"
    },
    {
      "inputs": [
        {
          "internalType": "bytes32",
          "name": "role",
          "type": "bytes32"
        },
        {
          "internalType": "address",
          "name": "account",
          "type": "address"
        }
      ],
      "name": "grantRole",
      "outputs": [],
      "stateMutability": "nonpayable",
      "type": "function"
    },
    {
      "inputs": [
        {
          "internalType": "bytes32",
          "name": "role",
          "type": "bytes32"
        },
        {
          "internalType": "address",
          "name": "account",
          "type": "address"
        }
      ],
      "name": "hasRole",
      "outputs": [
        {
          "internalType": "bool",
          "name": "",
          "type": "bool"
        }
      ],
      "stateMutability": "view",
      "type": "function"
    },
    {
      "inputs": [
        {
          "internalType": "address",
          "name": "owner",
          "type": "address"
        },
        {
          "internalType": "address",
          "name": "operator",
          "type": "address"
        }
      ],
      "name": "isApprovedForAll",
      "outputs": [
        {
          "internalType": "bool",
          "name": "",
          "type": "bool"
        }
      ],
      "stateMutability": "view",
      "type": "function"
    },
    {
      "inputs": [
        {
          "internalType": "uint256",
          "name": "",
          "type": "uint256"
        }
      ],
      "name": "isRedeemed",
      "outputs": [
        {
          "internalType": "bool",
          "name": "",
          "type": "bool"
        }
      ],
      "stateMutability": "view",
      "type": "function"
    },
    {
      "inputs": [
        {
          "internalType": "address",
          "name": "to",
          "type": "address"
        },
        {
          "internalType": "uint256",
          "name": "eventId",
          "type": "uint256"
        },
        {
          "internalType": "bytes32",
          "name": "digest",
          "type": "bytes32"
        },
        {
          "internalType": "uint8",
          "name": "hashFunction",
          "type": "uint8"
        },
        {
          "internalType": "uint8",
          "name": "size",
          "type": "uint8"
        }
      ],
      "name": "mint",
      "outputs": [],
      "stateMutability": "nonpayable",
      "type": "function"
    },
    {
      "inputs": [],
      "name": "name",
      "outputs": [
        {
          "internalType": "string",
          "name": "",
          "type": "string"
        }
      ],
      "stateMutability": "view",
      "type": "function"
    },
    {
      "inputs": [
        {
          "internalType": "uint256",
          "name": "tokenId",
          "type": "uint256"
        }
      ],
      "name": "ownerOf",
      "outputs": [
        {
          "internalType": "address",
          "name": "",
          "type": "address"
        }
      ],
      "stateMutability": "view",
      "type": "function"
    },
    {
      "inputs": [
        {
          "internalType": "uint256",
          "name": "tokenId",
          "type": "uint256"
        }
      ],
      "name": "redeemTicket",
      "outputs": [],
      "stateMutability": "nonpayable",
      "type": "function"
    },
    {
      "inputs": [
        {
          "internalType": "bytes32",
          "name": "role",
          "type": "bytes32"
        },
        {
          "internalType": "address",
          "name": "callerConfirmation",
          "type": "address"
        }
      ],
      "name": "renounceRole",
      "outputs": [],
      "stateMutability": "nonpayable",
      "type": "function"
    },
    {
      "inputs": [
        {
          "internalType": "bytes32",
          "name": "role",
          "type": "bytes32"
        },
        {
          "internalType": "address",
          "name": "account",
          "type": "address"
        }
      ],
      "name": "revokeRole",
      "outputs": [],
      "stateMutability": "nonpayable",
      "type": "function"
    },
    {
      "inputs": [
        {
          "internalType": "address",
          "name": "from",
          "type": "address"
        },
        {
          "internalType": "address",
          "name": "to",
          "type": "address"
        },
        {
          "internalType": "uint256",
          "name": "tokenId",
          "type": "uint256"
        }
      ],
      "name": "safeTransferFrom",
      "outputs": [],
      "stateMutability": "nonpayable",
      "type": "function"
    },
    {
      "inputs": [
        {
          "internalType": "address",
          "name": "from",
          "type": "address"
        },
        {
          "internalType": "address",
          "name": "to",
          "type": "address"
        },
        {
          "internalType": "uint256",
          "name": "tokenId",
          "type": "uint256"
        },
        {
          "internalType": "bytes",
          "name": "data",
          "type": "bytes"
        }
      ],
      "name": "safeTransferFrom",
      "outputs": [],
      "stateMutability": "nonpayable",
      "type": "function"
    },
    {
      "inputs": [
        {
          "internalType": "address",
          "name": "operator",
          "type": "address"
        },
        {
          "internalType": "bool",
          "name": "approved",
          "type": "bool"
        }
      ],
      "name": "setApprovalForAll",
      "outputs": [],
      "stateMutability": "nonpayable",
      "type": "function"
    },
    {
      "inputs": [
        {
          "internalType": "address",
          "name": "_eventManagerAddress",
          "type": "address"
        }
      ],
      "name": "setEventManagerAddress",
      "outputs": [],
      "stateMutability": "nonpayable",
      "type": "function"
    },
    {
      "inputs": [
        {
          "internalType": "bytes4",
          "name": "interfaceId",
          "type": "bytes4"
        }
      ],
      "name": "supportsInterface",
      "outputs": [
        {
          "internalType": "bool",
          "name": "",
          "type": "bool"
        }
      ],
      "stateMutability": "view",
      "type": "function"
    },
    {
      "inputs": [],
      "name": "symbol",
      "outputs": [
        {
          "internalType": "string",
          "name": "",
          "type": "string"
        }
      ],
      "stateMutability": "view",
      "type": "function"
    },
    {
      "inputs": [
        {
          "internalType": "uint256",
          "name": "tokenId",
          "type": "uint256"
        }
      ],
      "name": "ticketMeta",
      "outputs": [
        {
          "internalType": "bytes32",
          "name": "digest",
          "type": "bytes32"
        },
        {
          "internalType": "uint8",
          "name": "hashFunction",
          "type": "uint8"
        },
        {
          "internalType": "uint8",
          "name": "size",
          "type": "uint8"
        }
      ],
      "stateMutability": "view",
      "type": "function"
    },
    {
      "inputs": [
        {
          "internalType": "uint256",
          "name": "",
          "type": "uint256"
        }
      ],
      "name": "ticketsMeta",
      "outputs": [
        {
          "internalType": "bytes32",
          "name": "digest",
          "type": "bytes32"
        },
        {
          "internalType": "uint8",
          "name": "hashFunction",
          "type": "uint8"
        },
        {
          "internalType": "uint8",
          "name": "size",
          "type": "uint8"
        }
      ],
      "stateMutability": "view",
      "type": "function"
    },
    {
      "inputs": [
        {
          "internalType": "uint256",
          "name": "tokenId",
          "type": "uint256"
        }
      ],
      "name": "tokenURI",
      "outputs": [
        {
          "internalType": "string",
          "name": "",
          "type": "string"
        }
      ],
      "stateMutability": "view",
      "type": "function"
    },
    {
      "inputs": [
        {
          "internalType": "address",
          "name": "from",
          "type": "address"
        },
        {
          "internalType": "address",
          "name": "to",
          "type": "address"
        },
        {
          "internalType": "uint256",
          "name": "tokenId",
          "type": "uint256"
        }
      ],
      "name": "transferFrom",
      "outputs": [],
      "stateMutability": "nonpayable",
      "type": "function"
    }
  ],
  "bytecode": "0x608060405234801561001057600080fd5b5060405161383a38038061383a83398181016040528101906100329190610418565b8282816000908161004391906106c4565b50806001908161005391906106c4565b5050506100696000801b826100d460201b60201c565b5061009a7f8b8c0776df2c2176edf6f82391c35ea4891146d7a976ee36fd07f1a6fb4ead4c826100d460201b60201c565b506100cb7f5620a1113a72b02a617976b3f6b15600dd7a8b3a916a9ca01e23119d989a0543826100d460201b60201c565b50505050610796565b60006100e683836101d260201b60201c565b6101c75760016006600085815260200190815260200160002060000160008473ffffffffffffffffffffffffffffffffffffffff1673ffffffffffffffffffffffffffffffffffffffff16815260200190815260200160002060006101000a81548160ff02191690831515021790555061016461023d60201b60201c565b73ffffffffffffffffffffffffffffffffffffffff168273ffffffffffffffffffffffffffffffffffffffff16847f2f8788117e7eff1d82e926ec794901d17c78024a50270940304540a733656f0d60405160405180910390a4600190506101cc565b600090505b92915050565b60006006600084815260200190815260200160002060000160008373ffffffffffffffffffffffffffffffffffffffff1673ffffffffffffffffffffffffffffffffffffffff16815260200190815260200160002060009054906101000a900460ff16905092915050565b600033905090565b6000604051905090565b600080fd5b600080fd5b600080fd5b600080fd5b6000601f19601f8301169050919050565b7f4e487b7100000000000000000000000000000000000000000000000000000000600052604160045260246000fd5b6102ac82610263565b810181811067ffffffffffffffff821117156102cb576102ca610274565b5b80604052505050565b60006102de610245565b90506102ea82826102a3565b919050565b600067ffffffffffffffff82111561030a57610309610274565b5b61031382610263565b9050602081019050919050565b60005b8381101561033e578082015181840152602081019050610323565b60008484015250505050565b600061035d610358846102ef565b6102d4565b9050828152602081018484840111156103795761037861025e565b5b610384848285610320565b509392505050565b600082601f8301126103a1576103a0610259565b5b81516103b184826020860161034a565b91505092915050565b600073ffffffffffffffffffffffffffffffffffffffff82169050919050565b60006103e5826103ba565b9050919050565b6103f5816103da565b811461040057600080fd5b50565b600081519050610412816103ec565b92915050565b6000806000606084860312156104315761043061024f565b5b600084015167ffffffffffffffff81111561044f5761044e610254565b5b61045b8682870161038c565b935050602084015167ffffffffffffffff81111561047c5761047b610254565b5b6104888682870161038c565b925050604061049986828701610403565b9150509250925092565b600081519050919050565b7f4e487b7100000000000000000000000000000000000000000000000000000000600052602260045260246000fd5b600060028204905060018216806104f557607f821691505b602082108103610508576105076104ae565b5b50919050565b60008190508160005260206000209050919050565b60006020601f8301049050919050565b600082821b905092915050565b6000600883026105707fffffffffffffffffffffffffffffffffffffffffffffffffffffffffffffffff82610533565b61057a8683610533565b95508019841693508086168417925050509392505050565b6000819050919050565b6000819050919050565b60006105c16105bc6105b784610592565b61059c565b610592565b9050919050565b6000819050919050565b6105db836105a6565b6105ef6105e7826105c8565b848454610540565b825550505050565b600090565b6106046105f7565b61060f8184846105d2565b505050565b5b81811015610633576106286000826105fc565b600181019050610615565b5050565b601f821115610678576106498161050e565b61065284610523565b81016020851015610661578190505b61067561066d85610523565b830182610614565b50505b505050565b600082821c905092915050565b600061069b6000198460080261067d565b1980831691505092915050565b60006106b4838361068a565b9150826002028217905092915050565b6106cd826104a3565b67ffffffffffffffff8111156106e6576106e5610274565b5b6106f082546104dd565b6106fb828285610637565b600060209050601f83116001811461072e576000841561071c578287015190505b61072685826106a8565b86555061078e565b601f19841661073c8661050e565b60005b828110156107645784890151825560018201915060208501945060208101905061073f565b86831015610781578489015161077d601f89168261068a565b8355505b6001600288020188555050505b505050505050565b613095806107a56000396000f3fe608060405234801561001057600080fd5b50600436106101cf5760003560e01c80636352211e11610104578063a217fddf116100a2578063d547741f11610071578063d547741f14610568578063d851b90a14610584578063dc224863146105a0578063e985e9c5146105be576101cf565b8063a217fddf146104e2578063a22cb46514610500578063b88d4fde1461051c578063c87b56dd14610538576101cf565b806385290fa1116100de57806385290fa11461044457806389e3df111461046257806391d148541461049457806395d89b41146104c4576101cf565b80636352211e146103b257806370a08231146103e25780637f87197514610412576101cf565b80632f2ff15d1161017157806342842e0e1161014b57806342842e0e1461033e57806347664c241461035a578063581e7415146103765780635948687314610394576101cf565b80632f2ff15d146102d657806332d33cd0146102f257806336568abe14610322576101cf565b8063095ea7b3116101ad578063095ea7b31461025257806315f59d7f1461026e57806323b872dd1461028a578063248a9ca3146102a6576101cf565b806301ffc9a7146101d457806306fdde0314610204578063081812fc14610222575b600080fd5b6101ee60048036038101906101e99190612311565b6105ee565b6040516101fb9190612359565b60405180910390f35b61020c610600565b6040516102199190612404565b60405180910390f35b61023c6004803603810190610237919061245c565b610692565b60405161024991906124ca565b60405180910390f35b61026c60048036038101906102679190612511565b6106ae565b005b6102886004803603810190610283919061245c565b6106c4565b005b6102a4600480360381019061029f9190612551565b6107f4565b005b6102c060048036038101906102bb91906125da565b610873565b6040516102cd9190612616565b60405180910390f35b6102f060048036038101906102eb9190612631565b610893565b005b61030c6004803603810190610307919061245c565b6108b5565b6040516103199190612359565b60405180910390f35b61033c60048036038101906103379190612631565b6108d5565b005b61035860048036038101906103539190612551565b610950565b005b610374600480360381019061036f91906126aa565b610970565b005b61037e610ace565b60405161038b91906124ca565b60405180910390f35b61039c610af4565b6040516103a99190612616565b60405180910390f35b6103cc60048036038101906103c7919061245c565b610b18565b6040516103d991906124ca565b60405180910390f35b6103fc60048036038101906103f79190612725565b610b2a565b6040516104099190612761565b60405180910390f35b61042c6004803603810190610427919061245c565b610be4565b60405161043b9392919061278b565b60405180910390f35b61044c610c41565b6040516104599190612616565b60405180910390f35b61047c6004803603810190610477919061245c565b610c65565b60405161048b9392919061278b565b60405180910390f35b6104ae60048036038101906104a99190612631565b610ca9565b6040516104bb9190612359565b60405180910390f35b6104cc610d14565b6040516104d99190612404565b60405180910390f35b6104ea610da6565b6040516104f79190612616565b60405180910390f35b61051a600480360381019061051591906127ee565b610dad565b005b61053660048036038101906105319190612963565b610dc3565b005b610552600480360381019061054d919061245c565b610de8565b60405161055f9190612404565b60405180910390f35b610582600480360381019061057d9190612631565b610e51565b005b61059e60048036038101906105999190612725565b610e73565b005b6105a861100a565b6040516105b59190612616565b60405180910390f35b6105d860048036038101906105d391906129e6565b61102e565b6040516105e59190612359565b60405180910390f35b60006105f9826110c2565b9050919050565b60606000805461060f90612a55565b80601f016020809104026020016040519081016040528092919081815260200182805461063b90612a55565b80156106885780601f1061065d57610100808354040283529160200191610688565b820191906000526020600020905b81548152906001019060200180831161066b57829003601f168201915b5050505050905090565b600061069d8261113c565b506106a7826111c4565b9050919050565b6106c082826106bb611201565b611209565b5050565b6106ee7f5620a1113a72b02a617976b3f6b15600dd7a8b3a916a9ca01e23119d989a054333610ca9565b61072d576040517f08c379a000000000000000000000000000000000000000000000000000000000815260040161072490612ad2565b60405180910390fd5b6009600082815260200190815260200160002060009054906101000a900460ff161561078e576040517f08c379a000000000000000000000000000000000000000000000000000000000815260040161078590612b3e565b60405180910390fd5b60016009600083815260200190815260200160002060006101000a81548160ff0219169083151502179055507fb0ebd5f2f7c40ca5715d8deab780894f023a63bc249fc45e69df6acbc4e8b568816040516107e99190612761565b60405180910390a150565b600073ffffffffffffffffffffffffffffffffffffffff168373ffffffffffffffffffffffffffffffffffffffff1614610863576040517f08c379a000000000000000000000000000000000000000000000000000000000815260040161085a90612baa565b60405180910390fd5b61086e83838361121b565b505050565b600060066000838152602001908152602001600020600101549050919050565b61089c82610873565b6108a58161131d565b6108af8383611331565b50505050565b60096020528060005260406000206000915054906101000a900460ff1681565b6108dd611201565b73ffffffffffffffffffffffffffffffffffffffff168173ffffffffffffffffffffffffffffffffffffffff1614610941576040517f6697b23200000000000000000000000000000000000000000000000000000000815260040160405180910390fd5b61094b8282611423565b505050565b61096b83838360405180602001604052806000815250610dc3565b505050565b61099a7fa961ef34a96635180dfffd0ae574060d6c6af619ce89175a103711bf5ce8270833610ca9565b6109d9576040517f08c379a00000000000000000000000000000000000000000000000000000000081526004016109d090612c16565b60405180910390fd5b6001600760008282546109ec9190612c65565b925050819055506109ff85600754611516565b60405180606001604052808481526020018360ff1681526020018260ff168152506008600060075481526020019081526020016000206000820151816000015560208201518160010160006101000a81548160ff021916908360ff16021790555060408201518160010160016101000a81548160ff021916908360ff1602179055509050507f08e23b1c2f47bedce5c541a2a230218e9643307ae68c8019b26b5a693a303c548460075487868686604051610abf96959493929190612c99565b60405180910390a15050505050565b600a60009054906101000a900473ffffffffffffffffffffffffffffffffffffffff1681565b7fa961ef34a96635180dfffd0ae574060d6c6af619ce89175a103711bf5ce8270881565b6000610b238261113c565b9050919050565b60008073ffffffffffffffffffffffffffffffffffffffff168273ffffffffffffffffffffffffffffffffffffffff1603610b9d5760006040517f89c62b64000000000000000000000000000000000000000000000000000000008152600401610b9491906124ca565b60405180910390fd5b600360008373ffffffffffffffffffffffffffffffffffffffff1673ffffffffffffffffffffffffffffffffffffffff168152602001908152602001600020549050919050565b6000806000610bf28461113c565b50600060086000868152602001908152602001600020905080600001548160010160009054906101000a900460ff168260010160019054906101000a900460ff16935093509350509193909250565b7f5620a1113a72b02a617976b3f6b15600dd7a8b3a916a9ca01e23119d989a054381565b60086020528060005260406000206000915090508060000154908060010160009054906101000a900460ff16908060010160019054906101000a900460ff16905083565b60006006600084815260200190815260200160002060000160008373ffffffffffffffffffffffffffffffffffffffff1673ffffffffffffffffffffffffffffffffffffffff16815260200190815260200160002060009054906101000a900460ff16905092915050565b606060018054610d2390612a55565b80601f0160208091040260200160405190810160405280929190818152602001828054610d4f90612a55565b8015610d9c5780601f10610d7157610100808354040283529160200191610d9c565b820191906000526020600020905b815481529060010190602001808311610d7f57829003601f168201915b5050505050905090565b6000801b81565b610dbf610db8611201565b838361160f565b5050565b610dce8484846107f4565b610de2610dd9611201565b8585858561177e565b50505050565b6060610df38261113c565b506000610dfe61192f565b90506000815111610e1e5760405180602001604052806000815250610e49565b80610e2884611946565b604051602001610e39929190612d36565b6040516020818303038152906040525b915050919050565b610e5a82610873565b610e638161131d565b610e6d8383611423565b50505050565b610e9d7f8b8c0776df2c2176edf6f82391c35ea4891146d7a976ee36fd07f1a6fb4ead4c33610ca9565b610edc576040517f08c379a0000000000000000000000000000000000000000000000000000000008152600401610ed390612da6565b60405180910390fd5b600073ffffffffffffffffffffffffffffffffffffffff168173ffffffffffffffffffffffffffffffffffffffff1603610f4b576040517f08c379a0000000000000000000000000000000000000000000000000000000008152600401610f4290612e38565b60405180910390fd5b600073ffffffffffffffffffffffffffffffffffffffff16600a60009054906101000a900473ffffffffffffffffffffffffffffffffffffffff1673ffffffffffffffffffffffffffffffffffffffff1614610fdc576040517f08c379a0000000000000000000000000000000000000000000000000000000008152600401610fd390612ea4565b60405180910390fd5b6110067fa961ef34a96635180dfffd0ae574060d6c6af619ce89175a103711bf5ce8270882611331565b5050565b7f8b8c0776df2c2176edf6f82391c35ea4891146d7a976ee36fd07f1a6fb4ead4c81565b6000600560008473ffffffffffffffffffffffffffffffffffffffff1673ffffffffffffffffffffffffffffffffffffffff16815260200190815260200160002060008373ffffffffffffffffffffffffffffffffffffffff1673ffffffffffffffffffffffffffffffffffffffff16815260200190815260200160002060009054906101000a900460ff16905092915050565b60007f7965db0b000000000000000000000000000000000000000000000000000000007bffffffffffffffffffffffffffffffffffffffffffffffffffffffff1916827bffffffffffffffffffffffffffffffffffffffffffffffffffffffff19161480611135575061113482611a14565b5b9050919050565b60008061114883611af6565b9050600073ffffffffffffffffffffffffffffffffffffffff168173ffffffffffffffffffffffffffffffffffffffff16036111bb57826040517f7e2732890000000000000000000000000000000000000000000000000000000081526004016111b29190612761565b60405180910390fd5b80915050919050565b60006004600083815260200190815260200160002060009054906101000a900473ffffffffffffffffffffffffffffffffffffffff169050919050565b600033905090565b6112168383836001611b33565b505050565b600073ffffffffffffffffffffffffffffffffffffffff168273ffffffffffffffffffffffffffffffffffffffff160361128d5760006040517f64a0ae9200000000000000000000000000000000000000000000000000000000815260040161128491906124ca565b60405180910390fd5b60006112a1838361129c611201565b611cf8565b90508373ffffffffffffffffffffffffffffffffffffffff168173ffffffffffffffffffffffffffffffffffffffff1614611317578382826040517f64283d7b00000000000000000000000000000000000000000000000000000000815260040161130e93929190612ec4565b60405180910390fd5b50505050565b61132e81611329611201565b611f12565b50565b600061133d8383610ca9565b6114185760016006600085815260200190815260200160002060000160008473ffffffffffffffffffffffffffffffffffffffff1673ffffffffffffffffffffffffffffffffffffffff16815260200190815260200160002060006101000a81548160ff0219169083151502179055506113b5611201565b73ffffffffffffffffffffffffffffffffffffffff168273ffffffffffffffffffffffffffffffffffffffff16847f2f8788117e7eff1d82e926ec794901d17c78024a50270940304540a733656f0d60405160405180910390a46001905061141d565b600090505b92915050565b600061142f8383610ca9565b1561150b5760006006600085815260200190815260200160002060000160008473ffffffffffffffffffffffffffffffffffffffff1673ffffffffffffffffffffffffffffffffffffffff16815260200190815260200160002060006101000a81548160ff0219169083151502179055506114a8611201565b73ffffffffffffffffffffffffffffffffffffffff168273ffffffffffffffffffffffffffffffffffffffff16847ff6391f5c32d9c69d2a47ea670b442974b53935d1edc7fd64eb21e047a839171b60405160405180910390a460019050611510565b600090505b92915050565b600073ffffffffffffffffffffffffffffffffffffffff168273ffffffffffffffffffffffffffffffffffffffff16036115885760006040517f64a0ae9200000000000000000000000000000000000000000000000000000000815260040161157f91906124ca565b60405180910390fd5b600061159683836000611cf8565b9050600073ffffffffffffffffffffffffffffffffffffffff168173ffffffffffffffffffffffffffffffffffffffff161461160a5760006040517f73c6ac6e00000000000000000000000000000000000000000000000000000000815260040161160191906124ca565b60405180910390fd5b505050565b600073ffffffffffffffffffffffffffffffffffffffff168273ffffffffffffffffffffffffffffffffffffffff160361168057816040517f5b08ba1800000000000000000000000000000000000000000000000000000000815260040161167791906124ca565b60405180910390fd5b80600560008573ffffffffffffffffffffffffffffffffffffffff1673ffffffffffffffffffffffffffffffffffffffff16815260200190815260200160002060008473ffffffffffffffffffffffffffffffffffffffff1673ffffffffffffffffffffffffffffffffffffffff16815260200190815260200160002060006101000a81548160ff0219169083151502179055508173ffffffffffffffffffffffffffffffffffffffff168373ffffffffffffffffffffffffffffffffffffffff167f17307eab39ab6107e8899845ad3d59bd9653f200f220920489ca2b5937696c31836040516117719190612359565b60405180910390a3505050565b60008373ffffffffffffffffffffffffffffffffffffffff163b1115611928578273ffffffffffffffffffffffffffffffffffffffff1663150b7a02868685856040518563ffffffff1660e01b81526004016117dd9493929190612f50565b6020604051808303816000875af192505050801561181957506040513d601f19601f820116820180604052508101906118169190612fb1565b60015b61189d573d8060008114611849576040519150601f19603f3d011682016040523d82523d6000602084013e61184e565b606091505b50600081510361189557836040517f64a0ae9200000000000000000000000000000000000000000000000000000000815260040161188c91906124ca565b60405180910390fd5b805181602001fd5b63150b7a0260e01b7bffffffffffffffffffffffffffffffffffffffffffffffffffffffff1916817bffffffffffffffffffffffffffffffffffffffffffffffffffffffff19161461192657836040517f64a0ae9200000000000000000000000000000000000000000000000000000000815260040161191d91906124ca565b60405180910390fd5b505b5050505050565b606060405180602001604052806000815250905090565b60606000600161195584611f63565b01905060008167ffffffffffffffff81111561197457611973612838565b5b6040519080825280601f01601f1916602001820160405280156119a65781602001600182028036833780820191505090505b509050600082602001820190505b600115611a09578080600190039150507f3031323334353637383961626364656600000000000000000000000000000000600a86061a8153600a85816119fd576119fc612fde565b5b049450600085036119b4575b819350505050919050565b60007f80ac58cd000000000000000000000000000000000000000000000000000000007bffffffffffffffffffffffffffffffffffffffffffffffffffffffff1916827bffffffffffffffffffffffffffffffffffffffffffffffffffffffff19161480611adf57507f5b5e139f000000000000000000000000000000000000000000000000000000007bffffffffffffffffffffffffffffffffffffffffffffffffffffffff1916827bffffffffffffffffffffffffffffffffffffffffffffffffffffffff1916145b80611aef5750611aee826120b6565b5b9050919050565b60006002600083815260200190815260200160002060009054906101000a900473ffffffffffffffffffffffffffffffffffffffff169050919050565b8080611b6c5750600073ffffffffffffffffffffffffffffffffffffffff168273ffffffffffffffffffffffffffffffffffffffff1614155b15611ca0576000611b7c8461113c565b9050600073ffffffffffffffffffffffffffffffffffffffff168373ffffffffffffffffffffffffffffffffffffffff1614158015611be757508273ffffffffffffffffffffffffffffffffffffffff168173ffffffffffffffffffffffffffffffffffffffff1614155b8015611bfa5750611bf8818461102e565b155b15611c3c57826040517fa9fbf51f000000000000000000000000000000000000000000000000000000008152600401611c3391906124ca565b60405180910390fd5b8115611c9e57838573ffffffffffffffffffffffffffffffffffffffff168273ffffffffffffffffffffffffffffffffffffffff167f8c5be1e5ebec7d5bd14f71427d1e84f3dd0314c0f7b2291e5b200ac8c7c3b92560405160405180910390a45b505b836004600085815260200190815260200160002060006101000a81548173ffffffffffffffffffffffffffffffffffffffff021916908373ffffffffffffffffffffffffffffffffffffffff16021790555050505050565b600080611d0484611af6565b9050600073ffffffffffffffffffffffffffffffffffffffff168373ffffffffffffffffffffffffffffffffffffffff1614611d4657611d45818486612120565b5b600073ffffffffffffffffffffffffffffffffffffffff168173ffffffffffffffffffffffffffffffffffffffff1614611dd757611d88600085600080611b33565b6001600360008373ffffffffffffffffffffffffffffffffffffffff1673ffffffffffffffffffffffffffffffffffffffff168152602001908152602001600020600082825403925050819055505b600073ffffffffffffffffffffffffffffffffffffffff168573ffffffffffffffffffffffffffffffffffffffff1614611e5a576001600360008773ffffffffffffffffffffffffffffffffffffffff1673ffffffffffffffffffffffffffffffffffffffff168152602001908152602001600020600082825401925050819055505b846002600086815260200190815260200160002060006101000a81548173ffffffffffffffffffffffffffffffffffffffff021916908373ffffffffffffffffffffffffffffffffffffffff160217905550838573ffffffffffffffffffffffffffffffffffffffff168273ffffffffffffffffffffffffffffffffffffffff167fddf252ad1be2c89b69c2b068fc378daa952ba7f163c4a11628f55a4df523b3ef60405160405180910390a4809150509392505050565b611f1c8282610ca9565b611f5f5780826040517fe2517d3f000000000000000000000000000000000000000000000000000000008152600401611f5692919061300d565b60405180910390fd5b5050565b600080600090507a184f03e93ff9f4daa797ed6e38ed64bf6a1f0100000000000000008310611fc1577a184f03e93ff9f4daa797ed6e38ed64bf6a1f0100000000000000008381611fb757611fb6612fde565b5b0492506040810190505b6d04ee2d6d415b85acef81000000008310611ffe576d04ee2d6d415b85acef81000000008381611ff457611ff3612fde565b5b0492506020810190505b662386f26fc10000831061202d57662386f26fc10000838161202357612022612fde565b5b0492506010810190505b6305f5e1008310612056576305f5e100838161204c5761204b612fde565b5b0492506008810190505b612710831061207b57612710838161207157612070612fde565b5b0492506004810190505b6064831061209e576064838161209457612093612fde565b5b0492506002810190505b600a83106120ad576001810190505b80915050919050565b60007f01ffc9a7000000000000000000000000000000000000000000000000000000007bffffffffffffffffffffffffffffffffffffffffffffffffffffffff1916827bffffffffffffffffffffffffffffffffffffffffffffffffffffffff1916149050919050565b61212b8383836121e4565b6121df57600073ffffffffffffffffffffffffffffffffffffffff168373ffffffffffffffffffffffffffffffffffffffff16036121a057806040517f7e2732890000000000000000000000000000000000000000000000000000000081526004016121979190612761565b60405180910390fd5b81816040517f177e802f0000000000000000000000000000000000000000000000000000000081526004016121d6929190613036565b60405180910390fd5b505050565b60008073ffffffffffffffffffffffffffffffffffffffff168373ffffffffffffffffffffffffffffffffffffffff161415801561229c57508273ffffffffffffffffffffffffffffffffffffffff168473ffffffffffffffffffffffffffffffffffffffff16148061225d575061225c848461102e565b5b8061229b57508273ffffffffffffffffffffffffffffffffffffffff16612283836111c4565b73ffffffffffffffffffffffffffffffffffffffff16145b5b90509392505050565b6000604051905090565b600080fd5b600080fd5b60007fffffffff0000000000000000000000000000000000000000000000000000000082169050919050565b6122ee816122b9565b81146122f957600080fd5b50565b60008135905061230b816122e5565b92915050565b600060208284031215612327576123266122af565b5b6000612335848285016122fc565b91505092915050565b60008115159050919050565b6123538161233e565b82525050565b600060208201905061236e600083018461234a565b92915050565b600081519050919050565b600082825260208201905092915050565b60005b838110156123ae578082015181840152602081019050612393565b60008484015250505050565b6000601f19601f8301169050919050565b60006123d682612374565b6123e0818561237f565b93506123f0818560208601612390565b6123f9816123ba565b840191505092915050565b6000602082019050818103600083015261241e81846123cb565b905092915050565b6000819050919050565b61243981612426565b811461244457600080fd5b50565b60008135905061245681612430565b92915050565b600060208284031215612472576124716122af565b5b600061248084828501612447565b91505092915050565b600073ffffffffffffffffffffffffffffffffffffffff82169050919050565b60006124b482612489565b9050919050565b6124c4816124a9565b82525050565b60006020820190506124df60008301846124bb565b92915050565b6124ee816124a9565b81146124f957600080fd5b50565b60008135905061250b816124e5565b92915050565b60008060408385031215612528576125276122af565b5b6000612536858286016124fc565b925050602061254785828601612447565b9150509250929050565b60008060006060848603121561256a576125696122af565b5b6000612578868287016124fc565b9350506020612589868287016124fc565b925050604061259a86828701612447565b9150509250925092565b6000819050919050565b6125b7816125a4565b81146125c257600080fd5b50565b6000813590506125d4816125ae565b92915050565b6000602082840312156125f0576125ef6122af565b5b60006125fe848285016125c5565b91505092915050565b612610816125a4565b82525050565b600060208201905061262b6000830184612607565b92915050565b60008060408385031215612648576126476122af565b5b6000612656858286016125c5565b9250506020612667858286016124fc565b9150509250929050565b600060ff82169050919050565b61268781612671565b811461269257600080fd5b50565b6000813590506126a48161267e565b92915050565b600080600080600060a086880312156126c6576126c56122af565b5b60006126d4888289016124fc565b95505060206126e588828901612447565b94505060406126f6888289016125c5565b935050606061270788828901612695565b925050608061271888828901612695565b9150509295509295909350565b60006020828403121561273b5761273a6122af565b5b6000612749848285016124fc565b91505092915050565b61275b81612426565b82525050565b60006020820190506127766000830184612752565b92915050565b61278581612671565b82525050565b60006060820190506127a06000830186612607565b6127ad602083018561277c565b6127ba604083018461277c565b949350505050565b6127cb8161233e565b81146127d657600080fd5b50565b6000813590506127e8816127c2565b92915050565b60008060408385031215612805576128046122af565b5b6000612813858286016124fc565b9250506020612824858286016127d9565b9150509250929050565b600080fd5b600080fd5b7f4e487b7100000000000000000000000000000000000000000000000000000000600052604160045260246000fd5b612870826123ba565b810181811067ffffffffffffffff8211171561288f5761288e612838565b5b80604052505050565b60006128a26122a5565b90506128ae8282612867565b919050565b600067ffffffffffffffff8211156128ce576128cd612838565b5b6128d7826123ba565b9050602081019050919050565b82818337600083830152505050565b6000612906612901846128b3565b612898565b90508281526020810184848401111561292257612921612833565b5b61292d8482856128e4565b509392505050565b600082601f83011261294a5761294961282e565b5b813561295a8482602086016128f3565b91505092915050565b6000806000806080858703121561297d5761297c6122af565b5b600061298b878288016124fc565b945050602061299c878288016124fc565b93505060406129ad87828801612447565b925050606085013567ffffffffffffffff8111156129ce576129cd6122b4565b5b6129da87828801612935565b91505092959194509250565b600080604083850312156129fd576129fc6122af565b5b6000612a0b858286016124fc565b9250506020612a1c858286016124fc565b9150509250929050565b7f4e487b7100000000000000000000000000000000000000000000000000000000600052602260045260246000fd5b60006002820490506001821680612a6d57607f821691505b602082108103612a8057612a7f612a26565b5b50919050565b7f4d757374206861766520737461666620726f6c65000000000000000000000000600082015250565b6000612abc60148361237f565b9150612ac782612a86565b602082019050919050565b60006020820190508181036000830152612aeb81612aaf565b9050919050565b7f546f6b656e207761732072656465656d656420616c7265616479000000000000600082015250565b6000612b28601a8361237f565b9150612b3382612af2565b602082019050919050565b60006020820190508181036000830152612b5781612b1b565b9050919050565b7f546f6b656e207472616e736665722069732064697361626c6564000000000000600082015250565b6000612b94601a8361237f565b9150612b9f82612b5e565b602082019050919050565b60006020820190508181036000830152612bc381612b87565b9050919050565b7f4d7573742068617665206576656e74206d616e6167657220726f6c6500000000600082015250565b6000612c00601c8361237f565b9150612c0b82612bca565b602082019050919050565b60006020820190508181036000830152612c2f81612bf3565b9050919050565b7f4e487b7100000000000000000000000000000000000000000000000000000000600052601160045260246000fd5b6000612c7082612426565b9150612c7b83612426565b9250828201905080821115612c9357612c92612c36565b5b92915050565b600060c082019050612cae6000830189612752565b612cbb6020830188612752565b612cc860408301876124bb565b612cd56060830186612607565b612ce2608083018561277c565b612cef60a083018461277c565b979650505050505050565b600081905092915050565b6000612d1082612374565b612d1a8185612cfa565b9350612d2a818560208601612390565b80840191505092915050565b6000612d428285612d05565b9150612d4e8284612d05565b91508190509392505050565b7f4d7573742068617665206d617374657220726f6c650000000000000000000000600082015250565b6000612d9060158361237f565b9150612d9b82612d5a565b602082019050919050565b60006020820190508181036000830152612dbf81612d83565b9050919050565b7f4576656e74206d616e6167657220616464726573732063616e6e6f742062652060008201527f7a65726f00000000000000000000000000000000000000000000000000000000602082015250565b6000612e2260248361237f565b9150612e2d82612dc6565b604082019050919050565b60006020820190508181036000830152612e5181612e15565b9050919050565b7f4576656e74206d616e616765722077617320616c726561647920736176656400600082015250565b6000612e8e601f8361237f565b9150612e9982612e58565b602082019050919050565b60006020820190508181036000830152612ebd81612e81565b9050919050565b6000606082019050612ed960008301866124bb565b612ee66020830185612752565b612ef360408301846124bb565b949350505050565b600081519050919050565b600082825260208201905092915050565b6000612f2282612efb565b612f2c8185612f06565b9350612f3c818560208601612390565b612f45816123ba565b840191505092915050565b6000608082019050612f6560008301876124bb565b612f7260208301866124bb565b612f7f6040830185612752565b8181036060830152612f918184612f17565b905095945050505050565b600081519050612fab816122e5565b92915050565b600060208284031215612fc757612fc66122af565b5b6000612fd584828501612f9c565b91505092915050565b7f4e487b7100000000000000000000000000000000000000000000000000000000600052601260045260246000fd5b600060408201905061302260008301856124bb565b61302f6020830184612607565b9392505050565b600060408201905061304b60008301856124bb565b6130586020830184612752565b939250505056fea2646970667358221220ecf6fe634ed7c0c35e4e72e3a2ed729096f383a713e2853f728b83cd8ab7a53d64736f6c634300081c0033",
  "linkReferences": {},
  "deployedLinkReferences": {}
}