{
  "_format": "hh-sol-artifact-1",
  "contractName": "CyberValleyEventManager",
  "sourceName": "contracts/CyberValleyEventManager.sol",
  "abi": [
    {
      "inputs": [
        {
          "internalType": "address",
          "name": "_usdtTokenContract",
          "type": "address"
        },
        {
          "internalType": "address",
          "name": "_eventTicketContract",
          "type": "address"
        },
        {
          "internalType": "address",
          "name": "_master",
          "type": "address"
        },
        {
          "internalType": "uint256",
          "name": "_masterPercentage",
          "type": "uint256"
        },
        {
          "internalType": "address",
          "name": "_devTeam",
          "type": "address"
        },
        {
          "internalType": "uint256",
          "name": "_devTeamPercentage",
          "type": "uint256"
        },
        {
          "internalType": "uint256",
          "name": "_eventRequestPrice",
          "type": "uint256"
        },
        {
          "internalType": "uint256",
          "name": "_initialOffest",
          "type": "uint256"
        }
      ],
      "stateMutability": "nonpayable",
      "type": "constructor"
    },
    {
      "inputs": [],
      "name": "AccessControlBadConfirmation",
      "type": "error"
    },
    {
      "inputs": [
        {
          "internalType": "address",
          "name": "account",
          "type": "address"
        },
        {
          "internalType": "bytes32",
          "name": "neededRole",
          "type": "bytes32"
        }
      ],
      "name": "AccessControlUnauthorizedAccount",
      "type": "error"
    },
    {
      "anonymous": false,
      "inputs": [
        {
          "indexed": false,
          "internalType": "uint256",
          "name": "eventPlaceId",
          "type": "uint256"
        },
        {
          "indexed": false,
          "internalType": "uint16",
          "name": "maxTickets",
          "type": "uint16"
        },
        {
          "indexed": false,
          "internalType": "uint16",
          "name": "minTickets",
          "type": "uint16"
        },
        {
          "indexed": false,
          "internalType": "uint16",
          "name": "minPrice",
          "type": "uint16"
        },
        {
          "indexed": false,
          "internalType": "uint8",
          "name": "minDays",
          "type": "uint8"
        }
      ],
      "name": "EventPlaceUpdated",
      "type": "event"
    },
    {
      "anonymous": false,
      "inputs": [
        {
          "indexed": false,
          "internalType": "uint256",
          "name": "eventId",
          "type": "uint256"
        },
        {
          "indexed": false,
          "internalType": "enum CyberValleyEventManager.EventStatus",
          "name": "status",
          "type": "uint8"
        }
      ],
      "name": "EventStatusChanged",
      "type": "event"
    },
    {
      "anonymous": false,
      "inputs": [
        {
          "indexed": false,
          "internalType": "uint256",
          "name": "tokenId",
          "type": "uint256"
        }
      ],
      "name": "EventTicketVerified",
      "type": "event"
    },
    {
      "anonymous": false,
      "inputs": [
        {
          "indexed": false,
          "internalType": "uint256",
          "name": "id",
          "type": "uint256"
        },
        {
          "indexed": false,
          "internalType": "uint256",
          "name": "eventPlaceId",
          "type": "uint256"
        },
        {
          "indexed": false,
          "internalType": "uint16",
          "name": "ticketPrice",
          "type": "uint16"
        },
        {
          "indexed": false,
          "internalType": "uint256",
          "name": "cancelDate",
          "type": "uint256"
        },
        {
          "indexed": false,
          "internalType": "uint256",
          "name": "startDate",
          "type": "uint256"
        },
        {
          "indexed": false,
          "internalType": "uint16",
          "name": "daysAmount",
          "type": "uint16"
        }
      ],
      "name": "EventUpdated",
      "type": "event"
    },
    {
      "anonymous": false,
      "inputs": [
        {
          "indexed": false,
          "internalType": "uint256",
          "name": "eventPlaceId",
          "type": "uint256"
        },
        {
          "indexed": false,
          "internalType": "uint16",
          "name": "maxTickets",
          "type": "uint16"
        },
        {
          "indexed": false,
          "internalType": "uint16",
          "name": "minTickets",
          "type": "uint16"
        },
        {
          "indexed": false,
          "internalType": "uint16",
          "name": "minPrice",
          "type": "uint16"
        },
        {
          "indexed": false,
          "internalType": "uint8",
          "name": "minDays",
          "type": "uint8"
        }
      ],
      "name": "NewEventPlaceAvailable",
      "type": "event"
    },
    {
      "anonymous": false,
      "inputs": [
        {
          "indexed": false,
          "internalType": "uint256",
          "name": "id",
          "type": "uint256"
        },
        {
          "indexed": false,
          "internalType": "address",
          "name": "creator",
          "type": "address"
        },
        {
          "indexed": false,
          "internalType": "uint256",
          "name": "eventPlaceId",
          "type": "uint256"
        },
        {
          "indexed": false,
          "internalType": "uint16",
          "name": "ticketPrice",
          "type": "uint16"
        },
        {
          "indexed": false,
          "internalType": "uint256",
          "name": "cancelDate",
          "type": "uint256"
        },
        {
          "indexed": false,
          "internalType": "uint256",
          "name": "startDate",
          "type": "uint256"
        },
        {
          "indexed": false,
          "internalType": "uint16",
          "name": "daysAmount",
          "type": "uint16"
        }
      ],
      "name": "NewEventRequest",
      "type": "event"
    },
    {
      "anonymous": false,
      "inputs": [
        {
          "indexed": true,
          "internalType": "bytes32",
          "name": "role",
          "type": "bytes32"
        },
        {
          "indexed": true,
          "internalType": "bytes32",
          "name": "previousAdminRole",
          "type": "bytes32"
        },
        {
          "indexed": true,
          "internalType": "bytes32",
          "name": "newAdminRole",
          "type": "bytes32"
        }
      ],
      "name": "RoleAdminChanged",
      "type": "event"
    },
    {
      "anonymous": false,
      "inputs": [
        {
          "indexed": true,
          "internalType": "bytes32",
          "name": "role",
          "type": "bytes32"
        },
        {
          "indexed": true,
          "internalType": "address",
          "name": "account",
          "type": "address"
        },
        {
          "indexed": true,
          "internalType": "address",
          "name": "sender",
          "type": "address"
        }
      ],
      "name": "RoleGranted",
      "type": "event"
    },
    {
      "anonymous": false,
      "inputs": [
        {
          "indexed": true,
          "internalType": "bytes32",
          "name": "role",
          "type": "bytes32"
        },
        {
          "indexed": true,
          "internalType": "address",
          "name": "account",
          "type": "address"
        },
        {
          "indexed": true,
          "internalType": "address",
          "name": "sender",
          "type": "address"
        }
      ],
      "name": "RoleRevoked",
      "type": "event"
    },
    {
      "inputs": [],
      "name": "BUCKET_SIZE",
      "outputs": [
        {
          "internalType": "uint256",
          "name": "",
          "type": "uint256"
        }
      ],
      "stateMutability": "view",
      "type": "function"
    },
    {
      "inputs": [],
      "name": "DEFAULT_ADMIN_ROLE",
      "outputs": [
        {
          "internalType": "bytes32",
          "name": "",
          "type": "bytes32"
        }
      ],
      "stateMutability": "view",
      "type": "function"
    },
    {
      "inputs": [],
      "name": "MASTER_ROLE",
      "outputs": [
        {
          "internalType": "bytes32",
          "name": "",
          "type": "bytes32"
        }
      ],
      "stateMutability": "view",
      "type": "function"
    },
    {
      "inputs": [],
      "name": "SECONDS_IN_DAY",
      "outputs": [
        {
          "internalType": "uint256",
          "name": "",
          "type": "uint256"
        }
      ],
      "stateMutability": "view",
      "type": "function"
    },
    {
      "inputs": [
        {
          "internalType": "uint256",
          "name": "eventId",
          "type": "uint256"
        }
      ],
      "name": "approveEvent",
      "outputs": [],
      "stateMutability": "nonpayable",
      "type": "function"
    },
    {
      "inputs": [
        {
          "internalType": "uint256",
          "name": "eventId",
          "type": "uint256"
        }
      ],
      "name": "cancelEvent",
      "outputs": [],
      "stateMutability": "nonpayable",
      "type": "function"
    },
    {
      "inputs": [
        {
          "internalType": "uint256",
          "name": "eventId",
          "type": "uint256"
        }
      ],
      "name": "closeEvent",
      "outputs": [],
      "stateMutability": "nonpayable",
      "type": "function"
    },
    {
      "inputs": [
        {
          "internalType": "uint16",
          "name": "_maxTickets",
          "type": "uint16"
        },
        {
          "internalType": "uint16",
          "name": "_minTickets",
          "type": "uint16"
        },
        {
          "internalType": "uint16",
          "name": "_minPrice",
          "type": "uint16"
        },
        {
          "internalType": "uint8",
          "name": "_minDays",
          "type": "uint8"
        }
      ],
      "name": "createEventPlace",
      "outputs": [],
      "stateMutability": "nonpayable",
      "type": "function"
    },
    {
      "inputs": [
        {
          "internalType": "uint256",
          "name": "eventId",
          "type": "uint256"
        }
      ],
      "name": "declineEvent",
      "outputs": [],
      "stateMutability": "nonpayable",
      "type": "function"
    },
    {
      "inputs": [],
      "name": "devTeam",
      "outputs": [
        {
          "internalType": "address",
          "name": "",
          "type": "address"
        }
      ],
      "stateMutability": "view",
      "type": "function"
    },
    {
      "inputs": [],
      "name": "devTeamPercentage",
      "outputs": [
        {
          "internalType": "uint256",
          "name": "",
          "type": "uint256"
        }
      ],
      "stateMutability": "view",
      "type": "function"
    },
    {
      "inputs": [
        {
          "internalType": "uint256",
          "name": "",
          "type": "uint256"
        }
      ],
      "name": "eventPlaces",
      "outputs": [
        {
          "internalType": "uint16",
          "name": "maxTickets",
          "type": "uint16"
        },
        {
          "internalType": "uint16",
          "name": "minTickets",
          "type": "uint16"
        },
        {
          "internalType": "uint16",
          "name": "minPrice",
          "type": "uint16"
        },
        {
          "internalType": "uint8",
          "name": "minDays",
          "type": "uint8"
        }
      ],
      "stateMutability": "view",
      "type": "function"
    },
    {
      "inputs": [],
      "name": "eventRequestPrice",
      "outputs": [
        {
          "internalType": "uint256",
          "name": "",
          "type": "uint256"
        }
      ],
      "stateMutability": "view",
      "type": "function"
    },
    {
      "inputs": [],
      "name": "eventTicketContract",
      "outputs": [
        {
          "internalType": "contract CyberValleyEventTicket",
          "name": "",
          "type": "address"
        }
      ],
      "stateMutability": "view",
      "type": "function"
    },
    {
      "inputs": [
        {
          "internalType": "uint256",
          "name": "",
          "type": "uint256"
        }
      ],
      "name": "events",
      "outputs": [
        {
          "internalType": "address",
          "name": "creator",
          "type": "address"
        },
        {
          "internalType": "uint256",
          "name": "eventPlaceId",
          "type": "uint256"
        },
        {
          "internalType": "uint16",
          "name": "ticketPrice",
          "type": "uint16"
        },
        {
          "internalType": "uint256",
          "name": "cancelDate",
          "type": "uint256"
        },
        {
          "internalType": "uint256",
          "name": "startDate",
          "type": "uint256"
        },
        {
          "internalType": "uint16",
          "name": "daysAmount",
          "type": "uint16"
        },
        {
          "internalType": "enum CyberValleyEventManager.EventStatus",
          "name": "status",
          "type": "uint8"
        }
      ],
      "stateMutability": "view",
      "type": "function"
    },
    {
      "inputs": [
        {
          "internalType": "bytes32",
          "name": "role",
          "type": "bytes32"
        }
      ],
      "name": "getRoleAdmin",
      "outputs": [
        {
          "internalType": "bytes32",
          "name": "",
          "type": "bytes32"
        }
      ],
      "stateMutability": "view",
      "type": "function"
    },
    {
      "inputs": [
        {
          "internalType": "bytes32",
          "name": "role",
          "type": "bytes32"
        },
        {
          "internalType": "address",
          "name": "account",
          "type": "address"
        }
      ],
      "name": "grantRole",
      "outputs": [],
      "stateMutability": "nonpayable",
      "type": "function"
    },
    {
      "inputs": [
        {
          "internalType": "bytes32",
          "name": "role",
          "type": "bytes32"
        },
        {
          "internalType": "address",
          "name": "account",
          "type": "address"
        }
      ],
      "name": "hasRole",
      "outputs": [
        {
          "internalType": "bool",
          "name": "",
          "type": "bool"
        }
      ],
      "stateMutability": "view",
      "type": "function"
    },
    {
      "inputs": [],
      "name": "master",
      "outputs": [
        {
          "internalType": "address",
          "name": "",
          "type": "address"
        }
      ],
      "stateMutability": "view",
      "type": "function"
    },
    {
      "inputs": [],
      "name": "masterPercentage",
      "outputs": [
        {
          "internalType": "uint256",
          "name": "",
          "type": "uint256"
        }
      ],
      "stateMutability": "view",
      "type": "function"
    },
    {
      "inputs": [
        {
          "internalType": "uint256",
          "name": "eventId",
          "type": "uint256"
        },
        {
          "internalType": "bytes32",
          "name": "digest",
          "type": "bytes32"
        },
        {
          "internalType": "uint8",
          "name": "hashFunction",
          "type": "uint8"
        },
        {
          "internalType": "uint8",
          "name": "size",
          "type": "uint8"
        }
      ],
      "name": "mintTicket",
      "outputs": [],
      "stateMutability": "nonpayable",
      "type": "function"
    },
    {
      "inputs": [
        {
          "internalType": "bytes32",
          "name": "role",
          "type": "bytes32"
        },
        {
          "internalType": "address",
          "name": "callerConfirmation",
          "type": "address"
        }
      ],
      "name": "renounceRole",
      "outputs": [],
      "stateMutability": "nonpayable",
      "type": "function"
    },
    {
      "inputs": [
        {
          "internalType": "bytes32",
          "name": "role",
          "type": "bytes32"
        },
        {
          "internalType": "address",
          "name": "account",
          "type": "address"
        }
      ],
      "name": "revokeRole",
      "outputs": [],
      "stateMutability": "nonpayable",
      "type": "function"
    },
    {
      "inputs": [
        {
          "internalType": "uint256",
          "name": "eventPlaceId",
          "type": "uint256"
        },
        {
          "internalType": "uint16",
          "name": "ticketPrice",
          "type": "uint16"
        },
        {
          "internalType": "uint256",
          "name": "cancelDate",
          "type": "uint256"
        },
        {
          "internalType": "uint256",
          "name": "startDate",
          "type": "uint256"
        },
        {
          "internalType": "uint16",
          "name": "daysAmount",
          "type": "uint16"
        }
      ],
      "name": "submitEventRequest",
      "outputs": [],
      "stateMutability": "nonpayable",
      "type": "function"
    },
    {
      "inputs": [
        {
          "internalType": "bytes4",
          "name": "interfaceId",
          "type": "bytes4"
        }
      ],
      "name": "supportsInterface",
      "outputs": [
        {
          "internalType": "bool",
          "name": "",
          "type": "bool"
        }
      ],
      "stateMutability": "view",
      "type": "function"
    },
    {
      "inputs": [
        {
          "internalType": "uint256",
          "name": "eventId",
          "type": "uint256"
        },
        {
          "internalType": "uint256",
          "name": "eventPlaceId",
          "type": "uint256"
        },
        {
          "internalType": "uint16",
          "name": "ticketPrice",
          "type": "uint16"
        },
        {
          "internalType": "uint256",
          "name": "cancelDate",
          "type": "uint256"
        },
        {
          "internalType": "uint256",
          "name": "startDate",
          "type": "uint256"
        },
        {
          "internalType": "uint16",
          "name": "daysAmount",
          "type": "uint16"
        }
      ],
      "name": "updateEvent",
      "outputs": [],
      "stateMutability": "nonpayable",
      "type": "function"
    },
    {
      "inputs": [
        {
          "internalType": "uint256",
          "name": "eventPlaceId",
          "type": "uint256"
        },
        {
          "internalType": "uint16",
          "name": "_maxTickets",
          "type": "uint16"
        },
        {
          "internalType": "uint16",
          "name": "_minTickets",
          "type": "uint16"
        },
        {
          "internalType": "uint16",
          "name": "_minPrice",
          "type": "uint16"
        },
        {
          "internalType": "uint8",
          "name": "_minDays",
          "type": "uint8"
        }
      ],
      "name": "updateEventPlace",
      "outputs": [],
      "stateMutability": "nonpayable",
      "type": "function"
    },
    {
      "inputs": [],
      "name": "usdtTokenContract",
      "outputs": [
        {
          "internalType": "contract IERC20",
          "name": "",
          "type": "address"
        }
      ],
      "stateMutability": "view",
      "type": "function"
    }
  ],
  "bytecode": "0x608060405234801561001057600080fd5b5060405161577f38038061577f833981810160405281019061003291906103fd565b8080600181905550506064858461004991906104e2565b111561008a576040517f08c379a000000000000000000000000000000000000000000000000000000000815260040161008190610599565b60405180910390fd5b87600360006101000a81548173ffffffffffffffffffffffffffffffffffffffff021916908373ffffffffffffffffffffffffffffffffffffffff16021790555086600460006101000a81548173ffffffffffffffffffffffffffffffffffffffff021916908373ffffffffffffffffffffffffffffffffffffffff1602179055508260058190555083600660006101000a81548173ffffffffffffffffffffffffffffffffffffffff021916908373ffffffffffffffffffffffffffffffffffffffff1602179055508460078190555085600860006101000a81548173ffffffffffffffffffffffffffffffffffffffff021916908373ffffffffffffffffffffffffffffffffffffffff160217905550816009819055506101b66000801b876101f560201b60201c565b506101e77f8b8c0776df2c2176edf6f82391c35ea4891146d7a976ee36fd07f1a6fb4ead4c876101f560201b60201c565b5050505050505050506105b9565b600061020783836102f260201b60201c565b6102e757600160008085815260200190815260200160002060000160008473ffffffffffffffffffffffffffffffffffffffff1673ffffffffffffffffffffffffffffffffffffffff16815260200190815260200160002060006101000a81548160ff02191690831515021790555061028461035c60201b60201c565b73ffffffffffffffffffffffffffffffffffffffff168273ffffffffffffffffffffffffffffffffffffffff16847f2f8788117e7eff1d82e926ec794901d17c78024a50270940304540a733656f0d60405160405180910390a4600190506102ec565b600090505b92915050565b600080600084815260200190815260200160002060000160008373ffffffffffffffffffffffffffffffffffffffff1673ffffffffffffffffffffffffffffffffffffffff16815260200190815260200160002060009054906101000a900460ff16905092915050565b600033905090565b600080fd5b600073ffffffffffffffffffffffffffffffffffffffff82169050919050565b600061039482610369565b9050919050565b6103a481610389565b81146103af57600080fd5b50565b6000815190506103c18161039b565b92915050565b6000819050919050565b6103da816103c7565b81146103e557600080fd5b50565b6000815190506103f7816103d1565b92915050565b600080600080600080600080610100898b03121561041e5761041d610364565b5b600061042c8b828c016103b2565b985050602061043d8b828c016103b2565b975050604061044e8b828c016103b2565b965050606061045f8b828c016103e8565b95505060806104708b828c016103b2565b94505060a06104818b828c016103e8565b93505060c06104928b828c016103e8565b92505060e06104a38b828c016103e8565b9150509295985092959890939650565b7f4e487b7100000000000000000000000000000000000000000000000000000000600052601160045260246000fd5b60006104ed826103c7565b91506104f8836103c7565b92508282019050808211156105105761050f6104b3565b5b92915050565b600082825260208201905092915050565b7f50657263656e7461676573206d757374206265206c657373207468616e20313060008201527f3000000000000000000000000000000000000000000000000000000000000000602082015250565b6000610583602183610516565b915061058e82610527565b604082019050919050565b600060208201905081810360008301526105b281610576565b9050919050565b6151b7806105c86000396000f3fe608060405234801561001057600080fd5b50600436106101c45760003560e01c80635c517ad2116100f9578063c5704e5e11610097578063d547741f11610071578063d547741f146104e6578063dbbdfaab14610502578063dc22486314610520578063ee97f7f31461053e576101c4565b8063c5704e5e1461048e578063c898e0a6146104aa578063d3dcc175146104c8576101c4565b80637d634ce3116100d35780637d634ce31461040657806391d1485414610424578063a217fddf14610454578063c31da59b14610472576101c4565b80635c517ad2146103ae5780635f1cd158146103cc57806361a52a36146103e8576101c4565b806326fd10781161016657806336568abe1161014057806336568abe146103275780633bf00de6146103435780633f69babd14610376578063472c4df314610392576101c4565b806326fd1078146102d15780632ee07c00146102ef5780632f2ff15d1461030b576101c4565b806312c55027116101a257806312c550271461024b5780631b1aafe4146102695780631efd9b8614610285578063248a9ca3146102a1576101c4565b806301ffc9a7146101c9578063075130c0146101f95780630b79143014610215575b600080fd5b6101e360048036038101906101de9190613402565b61055c565b6040516101f0919061344a565b60405180910390f35b610213600480360381019061020e91906134d5565b6105d6565b005b61022f600480360381019061022a9190613562565b61075a565b6040516102429796959493929190613665565b60405180910390f35b6102536107f5565b60405161026091906136d4565b60405180910390f35b610283600480360381019061027e9190613728565b6107fb565b005b61029f600480360381019061029a91906137a3565b6109db565b005b6102bb60048036038101906102b69190613854565b610eef565b6040516102c89190613890565b60405180910390f35b6102d9610f0e565b6040516102e6919061390a565b60405180910390f35b61030960048036038101906103049190613562565b610f34565b005b61032560048036038101906103209190613951565b611509565b005b610341600480360381019061033c9190613951565b61152b565b005b61035d60048036038101906103589190613562565b6115a6565b60405161036d94939291906139a0565b60405180910390f35b610390600480360381019061038b9190613562565b611619565b005b6103ac60048036038101906103a791906139e5565b611a81565b005b6103b6611d64565b6040516103c39190613a6d565b60405180910390f35b6103e660048036038101906103e19190613562565b611d8a565b005b6103f0611f9c565b6040516103fd91906136d4565b60405180910390f35b61040e611fa3565b60405161041b91906136d4565b60405180910390f35b61043e60048036038101906104399190613951565b611fa9565b60405161044b919061344a565b60405180910390f35b61045c612013565b6040516104699190613890565b60405180910390f35b61048c60048036038101906104879190613562565b61201a565b005b6104a860048036038101906104a39190613a88565b6122ea565b005b6104b261249b565b6040516104bf91906136d4565b60405180910390f35b6104d06124a1565b6040516104dd9190613aef565b60405180910390f35b61050060048036038101906104fb9190613951565b6124c7565b005b61050a6124e9565b60405161051791906136d4565b60405180910390f35b6105286124ef565b6040516105359190613890565b60405180910390f35b610546612513565b6040516105539190613aef565b60405180910390f35b60007f7965db0b000000000000000000000000000000000000000000000000000000007bffffffffffffffffffffffffffffffffffffffffffffffffffffffff1916827bffffffffffffffffffffffffffffffffffffffffffffffffffffffff191614806105cf57506105ce82612539565b5b9050919050565b6106007f8b8c0776df2c2176edf6f82391c35ea4891146d7a976ee36fd07f1a6fb4ead4c33611fa9565b61063f576040517f08c379a000000000000000000000000000000000000000000000000000000000815260040161063690613b67565b60405180910390fd5b85600b805490508110610687576040517f08c379a000000000000000000000000000000000000000000000000000000000815260040161067e90613bf9565b60405180910390fd5b6000600b888154811061069d5761069c613c19565b5b90600052602060002090600702019050868160010181905550858160020160006101000a81548161ffff021916908361ffff160217905550848160030181905550838160040181905550828160050160006101000a81548161ffff021916908361ffff16021790555061070f816125a3565b7f6d988d3adcc40ae297ef0e7a767c0c5e9e16562ffe41f173d1c59d968cd05c7a88888888888860405161074896959493929190613c48565b60405180910390a15050505050505050565b600b818154811061076a57600080fd5b90600052602060002090600702016000915090508060000160009054906101000a900473ffffffffffffffffffffffffffffffffffffffff16908060010154908060020160009054906101000a900461ffff16908060030154908060040154908060050160009054906101000a900461ffff16908060050160029054906101000a900460ff16905087565b61010081565b6108257f8b8c0776df2c2176edf6f82391c35ea4891146d7a976ee36fd07f1a6fb4ead4c33611fa9565b610864576040517f08c379a000000000000000000000000000000000000000000000000000000000815260040161085b90613b67565b60405180910390fd5b600a8054905085106108ab576040517f08c379a00000000000000000000000000000000000000000000000000000000081526004016108a290613cf5565b60405180910390fd5b600060405180608001604052808661ffff1681526020018561ffff1681526020018461ffff1681526020018360ff1681525090506108e8816128f3565b80600a87815481106108fd576108fc613c19565b5b9060005260206000200160008201518160000160006101000a81548161ffff021916908361ffff16021790555060208201518160000160026101000a81548161ffff021916908361ffff16021790555060408201518160000160046101000a81548161ffff021916908361ffff16021790555060608201518160000160066101000a81548160ff021916908360ff1602179055509050507fbf7a8bada6834ead3e98c2dadf5c94b6fe9c95d6564f6686367521174009023386868686866040516109cb959493929190613d15565b60405180910390a1505050505050565b600954600360009054906101000a900473ffffffffffffffffffffffffffffffffffffffff1673ffffffffffffffffffffffffffffffffffffffff166370a08231336040518263ffffffff1660e01b8152600401610a399190613aef565b602060405180830381865afa158015610a56573d6000803e3d6000fd5b505050506040513d601f19601f82011682018060405250810190610a7a9190613d7d565b1015610abb576040517f08c379a0000000000000000000000000000000000000000000000000000000008152600401610ab290613df6565b60405180910390fd5b600954600360009054906101000a900473ffffffffffffffffffffffffffffffffffffffff1673ffffffffffffffffffffffffffffffffffffffff1663dd62ed3e33306040518363ffffffff1660e01b8152600401610b1b929190613e16565b602060405180830381865afa158015610b38573d6000803e3d6000fd5b505050506040513d601f19601f82011682018060405250810190610b5c9190613d7d565b1015610b9d576040517f08c379a0000000000000000000000000000000000000000000000000000000008152600401610b9490613e8b565b60405180910390fd5b600360009054906101000a900473ffffffffffffffffffffffffffffffffffffffff1673ffffffffffffffffffffffffffffffffffffffff166323b872dd33306009546040518463ffffffff1660e01b8152600401610bfe93929190613eab565b6020604051808303816000875af1158015610c1d573d6000803e3d6000fd5b505050506040513d601f19601f82011682018060405250810190610c419190613f0e565b610c80576040517f08c379a0000000000000000000000000000000000000000000000000000000008152600401610c7790613f87565b60405180910390fd5b600b6040518061010001604052803373ffffffffffffffffffffffffffffffffffffffff1681526020018781526020018661ffff1681526020018581526020018481526020018361ffff16815260200160006004811115610ce457610ce36135ee565b5b8152602001600067ffffffffffffffff811115610d0457610d03613fa7565b5b604051908082528060200260200182016040528015610d325781602001602082028036833780820191505090505b50815250908060018154018082558091505060019003906000526020600020906007020160009091909190915060008201518160000160006101000a81548173ffffffffffffffffffffffffffffffffffffffff021916908373ffffffffffffffffffffffffffffffffffffffff1602179055506020820151816001015560408201518160020160006101000a81548161ffff021916908361ffff160217905550606082015181600301556080820151816004015560a08201518160050160006101000a81548161ffff021916908361ffff16021790555060c08201518160050160026101000a81548160ff02191690836004811115610e3557610e346135ee565b5b021790555060e0820151816006019080519060200190610e569291906132fe565b505050610e94600b6001600b80549050610e709190614005565b81548110610e8157610e80613c19565b5b90600052602060002090600702016125a3565b7f1d92ac7667ffc7843c1949d604ff614b3a3d45c5f49ec58b3497554374c50f0e6001600b80549050610ec79190614005565b338787878787604051610ee09796959493929190614039565b60405180910390a15050505050565b6000806000838152602001908152602001600020600101549050919050565b600460009054906101000a900473ffffffffffffffffffffffffffffffffffffffff1681565b610f5e7f8b8c0776df2c2176edf6f82391c35ea4891146d7a976ee36fd07f1a6fb4ead4c33611fa9565b610f9d576040517f08c379a0000000000000000000000000000000000000000000000000000000008152600401610f9490613b67565b60405180910390fd5b80600b805490508110610fe5576040517f08c379a0000000000000000000000000000000000000000000000000000000008152600401610fdc90613bf9565b60405180910390fd5b6000600b8381548110610ffb57610ffa613c19565b5b906000526020600020906007020190506001600481111561101f5761101e6135ee565b5b8160050160029054906101000a900460ff166004811115611043576110426135ee565b5b14611083576040517f08c379a000000000000000000000000000000000000000000000000000000000815260040161107a9061411a565b60405180910390fd5b620151808160050160009054906101000a900461ffff1661ffff166110a8919061413a565b81600401546110b7919061417c565b4210156110f9576040517f08c379a00000000000000000000000000000000000000000000000000000000081526004016110f0906141fc565b60405180910390fd5b600060095482600601805490508360020160009054906101000a900461ffff1661ffff16611127919061413a565b611131919061417c565b90506000606460075483611145919061413a565b61114f919061424b565b90506000606460055484611163919061413a565b61116d919061424b565b9050600360009054906101000a900473ffffffffffffffffffffffffffffffffffffffff1673ffffffffffffffffffffffffffffffffffffffff1663a9059cbb600860009054906101000a900473ffffffffffffffffffffffffffffffffffffffff16846040518363ffffffff1660e01b81526004016111ee92919061427c565b6020604051808303816000875af115801561120d573d6000803e3d6000fd5b505050506040513d601f19601f820116820180604052508101906112319190613f0e565b611270576040517f08c379a000000000000000000000000000000000000000000000000000000000815260040161126790614317565b60405180910390fd5b600360009054906101000a900473ffffffffffffffffffffffffffffffffffffffff1673ffffffffffffffffffffffffffffffffffffffff1663a9059cbb600660009054906101000a900473ffffffffffffffffffffffffffffffffffffffff16836040518363ffffffff1660e01b81526004016112ef92919061427c565b6020604051808303816000875af115801561130e573d6000803e3d6000fd5b505050506040513d601f19601f820116820180604052508101906113329190613f0e565b611371576040517f08c379a0000000000000000000000000000000000000000000000000000000008152600401611368906143a9565b60405180910390fd5b600360009054906101000a900473ffffffffffffffffffffffffffffffffffffffff1673ffffffffffffffffffffffffffffffffffffffff1663a9059cbb8560000160009054906101000a900473ffffffffffffffffffffffffffffffffffffffff168385876113e19190614005565b6113eb9190614005565b6040518363ffffffff1660e01b815260040161140892919061427c565b6020604051808303816000875af1158015611427573d6000803e3d6000fd5b505050506040513d601f19601f8201168201806040525081019061144b9190613f0e565b61148a576040517f08c379a00000000000000000000000000000000000000000000000000000000081526004016114819061443b565b60405180910390fd5b60048460050160026101000a81548160ff021916908360048111156114b2576114b16135ee565b5b02179055507f9d8cf36abe2d20e715d261aa411007463c15b28ebb52d1841ab9ac22aae66510868560050160029054906101000a900460ff166040516114f992919061445b565b60405180910390a1505050505050565b61151282610eef565b61151b816129cf565b61152583836129e3565b50505050565b611533612ad4565b73ffffffffffffffffffffffffffffffffffffffff168173ffffffffffffffffffffffffffffffffffffffff1614611597576040517f6697b23200000000000000000000000000000000000000000000000000000000815260040160405180910390fd5b6115a18282612adc565b505050565b600a81815481106115b657600080fd5b906000526020600020016000915090508060000160009054906101000a900461ffff16908060000160029054906101000a900461ffff16908060000160049054906101000a900461ffff16908060000160069054906101000a900460ff16905084565b6116437f8b8c0776df2c2176edf6f82391c35ea4891146d7a976ee36fd07f1a6fb4ead4c33611fa9565b611682576040517f08c379a000000000000000000000000000000000000000000000000000000000815260040161167990613b67565b60405180910390fd5b80600b8054905081106116ca576040517f08c379a00000000000000000000000000000000000000000000000000000000081526004016116c190613bf9565b60405180910390fd5b6000600b83815481106116e0576116df613c19565b5b9060005260206000209060070201905060016004811115611704576117036135ee565b5b8160050160029054906101000a900460ff166004811115611728576117276135ee565b5b14611768576040517f08c379a000000000000000000000000000000000000000000000000000000000815260040161175f906144f6565b60405180910390fd5b80600301544210156117af576040517f08c379a00000000000000000000000000000000000000000000000000000000081526004016117a690614588565b60405180910390fd5b60038160050160026101000a81548160ff021916908360048111156117d7576117d66135ee565b5b021790555060005b816006018054905081101561192c57600360009054906101000a900473ffffffffffffffffffffffffffffffffffffffff1673ffffffffffffffffffffffffffffffffffffffff1663a9059cbb83600601838154811061184257611841613c19565b5b9060005260206000200160009054906101000a900473ffffffffffffffffffffffffffffffffffffffff168460020160009054906101000a900461ffff166040518363ffffffff1660e01b815260040161189d9291906145d9565b6020604051808303816000875af11580156118bc573d6000803e3d6000fd5b505050506040513d601f19601f820116820180604052508101906118e09190613f0e565b61191f576040517f08c379a000000000000000000000000000000000000000000000000000000000815260040161191690614674565b60405180910390fd5b80806001019150506117df565b50600360009054906101000a900473ffffffffffffffffffffffffffffffffffffffff1673ffffffffffffffffffffffffffffffffffffffff1663a9059cbb8260000160009054906101000a900473ffffffffffffffffffffffffffffffffffffffff166009546040518363ffffffff1660e01b81526004016119b092919061427c565b6020604051808303816000875af11580156119cf573d6000803e3d6000fd5b505050506040513d601f19601f820116820180604052508101906119f39190613f0e565b611a32576040517f08c379a0000000000000000000000000000000000000000000000000000000008152600401611a2990614706565b60405180910390fd5b7f9d8cf36abe2d20e715d261aa411007463c15b28ebb52d1841ab9ac22aae66510838260050160029054906101000a900460ff16604051611a7492919061445b565b60405180910390a1505050565b83600b805490508110611ac9576040517f08c379a0000000000000000000000000000000000000000000000000000000008152600401611ac090613bf9565b60405180910390fd5b6000600b8681548110611adf57611ade613c19565b5b90600052602060002090600702019050600a816001015481548110611b0757611b06613c19565b5b9060005260206000200160000160009054906101000a900461ffff1661ffff16816006018054905010611b6f576040517f08c379a0000000000000000000000000000000000000000000000000000000008152600401611b6690614772565b60405180910390fd5b600360009054906101000a900473ffffffffffffffffffffffffffffffffffffffff1673ffffffffffffffffffffffffffffffffffffffff166323b872dd33308460020160009054906101000a900461ffff166040518463ffffffff1660e01b8152600401611be093929190614792565b6020604051808303816000875af1158015611bff573d6000803e3d6000fd5b505050506040513d601f19601f82011682018060405250810190611c239190613f0e565b611c62576040517f08c379a0000000000000000000000000000000000000000000000000000000008152600401611c5990614815565b60405180910390fd5b600460009054906101000a900473ffffffffffffffffffffffffffffffffffffffff1673ffffffffffffffffffffffffffffffffffffffff166347664c2433888888886040518663ffffffff1660e01b8152600401611cc5959493929190614835565b600060405180830381600087803b158015611cdf57600080fd5b505af1158015611cf3573d6000803e3d6000fd5b5050505080600601339080600181540180825580915050600190039060005260206000200160009091909190916101000a81548173ffffffffffffffffffffffffffffffffffffffff021916908373ffffffffffffffffffffffffffffffffffffffff160217905550505050505050565b600360009054906101000a900473ffffffffffffffffffffffffffffffffffffffff1681565b611db47f8b8c0776df2c2176edf6f82391c35ea4891146d7a976ee36fd07f1a6fb4ead4c33611fa9565b611df3576040517f08c379a0000000000000000000000000000000000000000000000000000000008152600401611dea90613b67565b60405180910390fd5b80600b805490508110611e3b576040517f08c379a0000000000000000000000000000000000000000000000000000000008152600401611e3290613bf9565b60405180910390fd5b6000600b8381548110611e5157611e50613c19565b5b9060005260206000209060070201905060006004811115611e7557611e746135ee565b5b8160050160029054906101000a900460ff166004811115611e9957611e986135ee565b5b14611ed9576040517f08c379a0000000000000000000000000000000000000000000000000000000008152600401611ed0906148fa565b60405180910390fd5b611f1f81600101548260040154620151808460050160009054906101000a900461ffff1661ffff16611f0b919061413a565b8460040154611f1a919061417c565b612bce565b5060018160050160026101000a81548160ff02191690836004811115611f4857611f476135ee565b5b02179055507f9d8cf36abe2d20e715d261aa411007463c15b28ebb52d1841ab9ac22aae66510838260050160029054906101000a900460ff16604051611f8f92919061445b565b60405180910390a1505050565b6201518081565b60055481565b600080600084815260200190815260200160002060000160008373ffffffffffffffffffffffffffffffffffffffff1673ffffffffffffffffffffffffffffffffffffffff16815260200190815260200160002060009054906101000a900460ff16905092915050565b6000801b81565b6120447f8b8c0776df2c2176edf6f82391c35ea4891146d7a976ee36fd07f1a6fb4ead4c33611fa9565b612083576040517f08c379a000000000000000000000000000000000000000000000000000000000815260040161207a90613b67565b60405180910390fd5b80600b8054905081106120cb576040517f08c379a00000000000000000000000000000000000000000000000000000000081526004016120c290613bf9565b60405180910390fd5b6000600b83815481106120e1576120e0613c19565b5b9060005260206000209060070201905060006004811115612105576121046135ee565b5b8160050160029054906101000a900460ff166004811115612129576121286135ee565b5b14612169576040517f08c379a0000000000000000000000000000000000000000000000000000000008152600401612160906148fa565b60405180910390fd5b600360009054906101000a900473ffffffffffffffffffffffffffffffffffffffff1673ffffffffffffffffffffffffffffffffffffffff1663a9059cbb8260000160009054906101000a900473ffffffffffffffffffffffffffffffffffffffff166009546040518363ffffffff1660e01b81526004016121ec92919061427c565b6020604051808303816000875af115801561220b573d6000803e3d6000fd5b505050506040513d601f19601f8201168201806040525081019061222f9190613f0e565b61226e576040517f08c379a000000000000000000000000000000000000000000000000000000000815260040161226590614966565b60405180910390fd5b60028160050160026101000a81548160ff02191690836004811115612296576122956135ee565b5b02179055507f9d8cf36abe2d20e715d261aa411007463c15b28ebb52d1841ab9ac22aae66510838260050160029054906101000a900460ff166040516122dd92919061445b565b60405180910390a1505050565b6123147f8b8c0776df2c2176edf6f82391c35ea4891146d7a976ee36fd07f1a6fb4ead4c33611fa9565b612353576040517f08c379a000000000000000000000000000000000000000000000000000000000815260040161234a90613b67565b60405180910390fd5b600060405180608001604052808661ffff1681526020018561ffff1681526020018461ffff1681526020018360ff168152509050612390816128f3565b600a819080600181540180825580915050600190039060005260206000200160009091909190915060008201518160000160006101000a81548161ffff021916908361ffff16021790555060208201518160000160026101000a81548161ffff021916908361ffff16021790555060408201518160000160046101000a81548161ffff021916908361ffff16021790555060608201518160000160066101000a81548160ff021916908360ff16021790555050507f49a6b09a6167e54d378dbf26cd811842c8811814651101e96473e9d5d2281c8d6001600a805490506124779190614005565b8686868660405161248c959493929190613d15565b60405180910390a15050505050565b60095481565b600660009054906101000a900473ffffffffffffffffffffffffffffffffffffffff1681565b6124d082610eef565b6124d9816129cf565b6124e38383612adc565b50505050565b60075481565b7f8b8c0776df2c2176edf6f82391c35ea4891146d7a976ee36fd07f1a6fb4ead4c81565b600860009054906101000a900473ffffffffffffffffffffffffffffffffffffffff1681565b60007f01ffc9a7000000000000000000000000000000000000000000000000000000007bffffffffffffffffffffffffffffffffffffffffffffffffffffffff1916827bffffffffffffffffffffffffffffffffffffffffffffffffffffffff1916149050919050565b6000600a8260010154815481106125bd576125bc613c19565b5b906000526020600020019050600160048111156125dd576125dc6135ee565b5b8260050160029054906101000a900460ff166004811115612601576126006135ee565b5b1115612642576040517f08c379a0000000000000000000000000000000000000000000000000000000008152600401612639906149d2565b60405180910390fd5b8160020160009054906101000a900461ffff1661ffff168160000160049054906101000a900461ffff1661ffff1611156126b1576040517f08c379a00000000000000000000000000000000000000000000000000000000081526004016126a890614a64565b60405180910390fd5b8160050160009054906101000a900461ffff1661ffff168160000160069054906101000a900460ff1660ff16111561271e576040517f08c379a000000000000000000000000000000000000000000000000000000000815260040161271590614ad0565b60405180910390fd5b8160040154826003015410612768576040517f08c379a000000000000000000000000000000000000000000000000000000000815260040161275f90614b62565b60405180910390fd5b42826003015410156127af576040517f08c379a00000000000000000000000000000000000000000000000000000000081526004016127a690614bf4565b60405180910390fd5b62015180826003015483600401546127c79190614005565b1015612808576040517f08c379a00000000000000000000000000000000000000000000000000000000081526004016127ff90614c86565b60405180910390fd5b61010062015180612819919061413a565b4283600401546128299190614005565b111561286a576040517f08c379a000000000000000000000000000000000000000000000000000000000815260040161286190614d18565b60405180910390fd5b6128b082600101548360040154620151808560050160009054906101000a900461ffff1661ffff1661289c919061413a565b85600401546128ab919061417c565b612d0d565b6128ef576040517f08c379a00000000000000000000000000000000000000000000000000000000081526004016128e690614daa565b60405180910390fd5b5050565b806020015161ffff16816000015161ffff161015612946576040517f08c379a000000000000000000000000000000000000000000000000000000000815260040161293d90614e3c565b60405180910390fd5b6000816000015161ffff1611801561296657506000816020015161ffff16115b801561297a57506000816040015161ffff16115b801561298d57506000816060015160ff16115b6129cc576040517f08c379a00000000000000000000000000000000000000000000000000000000081526004016129c390614ea8565b60405180910390fd5b50565b6129e0816129db612ad4565b612f5e565b50565b60006129ef8383611fa9565b612ac957600160008085815260200190815260200160002060000160008473ffffffffffffffffffffffffffffffffffffffff1673ffffffffffffffffffffffffffffffffffffffff16815260200190815260200160002060006101000a81548160ff021916908315150217905550612a66612ad4565b73ffffffffffffffffffffffffffffffffffffffff168273ffffffffffffffffffffffffffffffffffffffff16847f2f8788117e7eff1d82e926ec794901d17c78024a50270940304540a733656f0d60405160405180910390a460019050612ace565b600090505b92915050565b600033905090565b6000612ae88383611fa9565b15612bc357600080600085815260200190815260200160002060000160008473ffffffffffffffffffffffffffffffffffffffff1673ffffffffffffffffffffffffffffffffffffffff16815260200190815260200160002060006101000a81548160ff021916908315150217905550612b60612ad4565b73ffffffffffffffffffffffffffffffffffffffff168273ffffffffffffffffffffffffffffffffffffffff16847ff6391f5c32d9c69d2a47ea670b442974b53935d1edc7fd64eb21e047a839171b60405160405180910390a460019050612bc8565b600090505b92915050565b60008282600154821015612c17576040517f08c379a0000000000000000000000000000000000000000000000000000000008152600401612c0e90614f3a565b60405180910390fd5b600154811015612c5c576040517f08c379a0000000000000000000000000000000000000000000000000000000008152600401612c5390614fcc565b60405180910390fd5b620151808282612c6c9190614005565b1015612cad576040517f08c379a0000000000000000000000000000000000000000000000000000000008152600401612ca49061505e565b60405180910390fd5b612cb8868686612d0d565b612cf7576040517f08c379a0000000000000000000000000000000000000000000000000000000008152600401612cee906150f0565b60405180910390fd5b612d02868686612faf565b925050509392505050565b60008282600154821015612d56576040517f08c379a0000000000000000000000000000000000000000000000000000000008152600401612d4d90614f3a565b60405180910390fd5b600154811015612d9b576040517f08c379a0000000000000000000000000000000000000000000000000000000008152600401612d9290614fcc565b60405180910390fd5b620151808282612dab9190614005565b1015612dec576040517f08c379a0000000000000000000000000000000000000000000000000000000008152600401612de39061505e565b60405180910390fd5b60006002600088815260200190815260200160002090506000818054905003612e19576001935050612f55565b6000612e24876131b5565b905081805490508110612e3c57600194505050612f55565b6000612e47876131b5565b90506000612e5589846131e7565b90506000612e6389846131e7565b9050828403612ea4576000858581548110612e8157612e80613c19565b5b9060005260206000200154612e968484613225565b161497505050505050612f55565b6000612eb18360ff613225565b905085805490508410612eee576000868681548110612ed357612ed2613c19565b5b90600052602060002001548216149850505050505050612f55565b6000612efb600084613225565b90506000878781548110612f1257612f11613c19565b5b90600052602060002001548316148015612f4b57506000878681548110612f3c57612f3b613c19565b5b90600052602060002001548216145b9950505050505050505b50509392505050565b612f688282611fa9565b612fab5780826040517fe2517d3f000000000000000000000000000000000000000000000000000000008152600401612fa2929190615110565b60405180910390fd5b5050565b60008282600154821015612ff8576040517f08c379a0000000000000000000000000000000000000000000000000000000008152600401612fef90614f3a565b60405180910390fd5b60015481101561303d576040517f08c379a000000000000000000000000000000000000000000000000000000000815260040161303490614fcc565b60405180910390fd5b62015180828261304d9190614005565b101561308e576040517f08c379a00000000000000000000000000000000000000000000000000000000081526004016130859061505e565b60405180910390fd5b600060026000888152602001908152602001600020905060006130b0876131b5565b905060006130bd876131b5565b905060006130cb89846131e7565b905060006130d989846131e7565b90506130e58585613259565b82840361312e576130f68282613225565b85858154811061310957613108613c19565b5b90600052602060002001600082825417925050819055506001975050505050506131ac565b6131388584613259565b6131438260ff613225565b85858154811061315657613155613c19565b5b9060005260206000200160008282541792505081905550613178600082613225565b85848154811061318b5761318a613c19565b5b90600052602060002001600082825417925050819055506001975050505050505b50509392505050565b600061010062015180600154846131cc9190614005565b6131d6919061424b565b6131e0919061424b565b9050919050565b6000610100826131f7919061413a565b62015180600154856132099190614005565b613213919061424b565b61321d9190614005565b905092915050565b60008260018085856132379190614005565b613241919061417c565b6001901b61324f9190614005565b901b905092915050565b6000600161326c848054905060016132c1565b6132769190614005565b90505b8181116132bc57826000908060018154018082558091505060019003906000526020600020016000909190919091505580806132b490615139565b915050613279565b505050565b60006132d082841184846132d8565b905092915050565b60006132e3846132f2565b82841802821890509392505050565b60008115159050919050565b828054828255906000526020600020908101928215613377579160200282015b828111156133765782518260006101000a81548173ffffffffffffffffffffffffffffffffffffffff021916908373ffffffffffffffffffffffffffffffffffffffff1602179055509160200191906001019061331e565b5b5090506133849190613388565b5090565b5b808211156133a1576000816000905550600101613389565b5090565b600080fd5b60007fffffffff0000000000000000000000000000000000000000000000000000000082169050919050565b6133df816133aa565b81146133ea57600080fd5b50565b6000813590506133fc816133d6565b92915050565b600060208284031215613418576134176133a5565b5b6000613426848285016133ed565b91505092915050565b60008115159050919050565b6134448161342f565b82525050565b600060208201905061345f600083018461343b565b92915050565b6000819050919050565b61347881613465565b811461348357600080fd5b50565b6000813590506134958161346f565b92915050565b600061ffff82169050919050565b6134b28161349b565b81146134bd57600080fd5b50565b6000813590506134cf816134a9565b92915050565b60008060008060008060c087890312156134f2576134f16133a5565b5b600061350089828a01613486565b965050602061351189828a01613486565b955050604061352289828a016134c0565b945050606061353389828a01613486565b935050608061354489828a01613486565b92505060a061355589828a016134c0565b9150509295509295509295565b600060208284031215613578576135776133a5565b5b600061358684828501613486565b91505092915050565b600073ffffffffffffffffffffffffffffffffffffffff82169050919050565b60006135ba8261358f565b9050919050565b6135ca816135af565b82525050565b6135d981613465565b82525050565b6135e88161349b565b82525050565b7f4e487b7100000000000000000000000000000000000000000000000000000000600052602160045260246000fd5b6005811061362e5761362d6135ee565b5b50565b600081905061363f8261361d565b919050565b600061364f82613631565b9050919050565b61365f81613644565b82525050565b600060e08201905061367a600083018a6135c1565b61368760208301896135d0565b61369460408301886135df565b6136a160608301876135d0565b6136ae60808301866135d0565b6136bb60a08301856135df565b6136c860c0830184613656565b98975050505050505050565b60006020820190506136e960008301846135d0565b92915050565b600060ff82169050919050565b613705816136ef565b811461371057600080fd5b50565b600081359050613722816136fc565b92915050565b600080600080600060a08688031215613744576137436133a5565b5b600061375288828901613486565b9550506020613763888289016134c0565b9450506040613774888289016134c0565b9350506060613785888289016134c0565b925050608061379688828901613713565b9150509295509295909350565b600080600080600060a086880312156137bf576137be6133a5565b5b60006137cd88828901613486565b95505060206137de888289016134c0565b94505060406137ef88828901613486565b935050606061380088828901613486565b9250506080613811888289016134c0565b9150509295509295909350565b6000819050919050565b6138318161381e565b811461383c57600080fd5b50565b60008135905061384e81613828565b92915050565b60006020828403121561386a576138696133a5565b5b60006138788482850161383f565b91505092915050565b61388a8161381e565b82525050565b60006020820190506138a56000830184613881565b92915050565b6000819050919050565b60006138d06138cb6138c68461358f565b6138ab565b61358f565b9050919050565b60006138e2826138b5565b9050919050565b60006138f4826138d7565b9050919050565b613904816138e9565b82525050565b600060208201905061391f60008301846138fb565b92915050565b61392e816135af565b811461393957600080fd5b50565b60008135905061394b81613925565b92915050565b60008060408385031215613968576139676133a5565b5b60006139768582860161383f565b92505060206139878582860161393c565b9150509250929050565b61399a816136ef565b82525050565b60006080820190506139b560008301876135df565b6139c260208301866135df565b6139cf60408301856135df565b6139dc6060830184613991565b95945050505050565b600080600080608085870312156139ff576139fe6133a5565b5b6000613a0d87828801613486565b9450506020613a1e8782880161383f565b9350506040613a2f87828801613713565b9250506060613a4087828801613713565b91505092959194509250565b6000613a57826138d7565b9050919050565b613a6781613a4c565b82525050565b6000602082019050613a826000830184613a5e565b92915050565b60008060008060808587031215613aa257613aa16133a5565b5b6000613ab0878288016134c0565b9450506020613ac1878288016134c0565b9350506040613ad2878288016134c0565b9250506060613ae387828801613713565b91505092959194509250565b6000602082019050613b0460008301846135c1565b92915050565b600082825260208201905092915050565b7f4d7573742068617665206d617374657220726f6c650000000000000000000000600082015250565b6000613b51601583613b0a565b9150613b5c82613b1b565b602082019050919050565b60006020820190508181036000830152613b8081613b44565b9050919050565b7f4576656e74207769746820676976656e20696420646f6573206e6f742065786960008201527f7374000000000000000000000000000000000000000000000000000000000000602082015250565b6000613be3602283613b0a565b9150613bee82613b87565b604082019050919050565b60006020820190508181036000830152613c1281613bd6565b9050919050565b7f4e487b7100000000000000000000000000000000000000000000000000000000600052603260045260246000fd5b600060c082019050613c5d60008301896135d0565b613c6a60208301886135d0565b613c7760408301876135df565b613c8460608301866135d0565b613c9160808301856135d0565b613c9e60a08301846135df565b979650505050505050565b7f6576656e74506c61636549642073686f756c6420657869737400000000000000600082015250565b6000613cdf601983613b0a565b9150613cea82613ca9565b602082019050919050565b60006020820190508181036000830152613d0e81613cd2565b9050919050565b600060a082019050613d2a60008301886135d0565b613d3760208301876135df565b613d4460408301866135df565b613d5160608301856135df565b613d5e6080830184613991565b9695505050505050565b600081519050613d778161346f565b92915050565b600060208284031215613d9357613d926133a5565b5b6000613da184828501613d68565b91505092915050565b7f4e6f7420656e6f75676820746f6b656e73000000000000000000000000000000600082015250565b6000613de0601183613b0a565b9150613deb82613daa565b602082019050919050565b60006020820190508181036000830152613e0f81613dd3565b9050919050565b6000604082019050613e2b60008301856135c1565b613e3860208301846135c1565b9392505050565b7f526571756972656420616d6f756e7420776173206e6f7420616c6c6f77656400600082015250565b6000613e75601f83613b0a565b9150613e8082613e3f565b602082019050919050565b60006020820190508181036000830152613ea481613e68565b9050919050565b6000606082019050613ec060008301866135c1565b613ecd60208301856135c1565b613eda60408301846135d0565b949350505050565b613eeb8161342f565b8114613ef657600080fd5b50565b600081519050613f0881613ee2565b92915050565b600060208284031215613f2457613f236133a5565b5b6000613f3284828501613ef9565b91505092915050565b7f4576656e742072657175657374207061796d656e74206661696c656400000000600082015250565b6000613f71601c83613b0a565b9150613f7c82613f3b565b602082019050919050565b60006020820190508181036000830152613fa081613f64565b9050919050565b7f4e487b7100000000000000000000000000000000000000000000000000000000600052604160045260246000fd5b7f4e487b7100000000000000000000000000000000000000000000000000000000600052601160045260246000fd5b600061401082613465565b915061401b83613465565b925082820390508181111561403357614032613fd6565b5b92915050565b600060e08201905061404e600083018a6135d0565b61405b60208301896135c1565b61406860408301886135d0565b61407560608301876135df565b61408260808301866135d0565b61408f60a08301856135d0565b61409c60c08301846135df565b98975050505050505050565b7f4f6e6c79206576656e7420696e20617070726f7665642073746174652063616e60008201527f20626520636c6f73656400000000000000000000000000000000000000000000602082015250565b6000614104602a83613b0a565b915061410f826140a8565b604082019050919050565b60006020820190508181036000830152614133816140f7565b9050919050565b600061414582613465565b915061415083613465565b925082820261415e81613465565b9150828204841483151761417557614174613fd6565b5b5092915050565b600061418782613465565b915061419283613465565b92508282019050808211156141aa576141a9613fd6565b5b92915050565b7f4576656e7420686173206e6f74206265656e2066696e69736865642079657400600082015250565b60006141e6601f83613b0a565b91506141f1826141b0565b602082019050919050565b60006020820190508181036000830152614215816141d9565b9050919050565b7f4e487b7100000000000000000000000000000000000000000000000000000000600052601260045260246000fd5b600061425682613465565b915061426183613465565b9250826142715761427061421c565b5b828204905092915050565b600060408201905061429160008301856135c1565b61429e60208301846135d0565b9392505050565b7f4661696c656420746f207472616e73666572206d61737465722773207368617260008201527f6500000000000000000000000000000000000000000000000000000000000000602082015250565b6000614301602183613b0a565b915061430c826142a5565b604082019050919050565b60006020820190508181036000830152614330816142f4565b9050919050565b7f4661696c656420746f207472616e73666572206465765465616d27732073686160008201527f7265000000000000000000000000000000000000000000000000000000000000602082015250565b6000614393602283613b0a565b915061439e82614337565b604082019050919050565b600060208201905081810360008301526143c281614386565b9050919050565b7f4661696c656420746f207472616e736665722063726561746f7227732073686160008201527f7265000000000000000000000000000000000000000000000000000000000000602082015250565b6000614425602283613b0a565b9150614430826143c9565b604082019050919050565b6000602082019050818103600083015261445481614418565b9050919050565b600060408201905061447060008301856135d0565b61447d6020830184613656565b9392505050565b7f4f6e6c79206576656e7420696e20617070726f7665642073746174652063616e60008201527f2062652063616e63656c6c656400000000000000000000000000000000000000602082015250565b60006144e0602d83613b0a565b91506144eb82614484565b604082019050919050565b6000602082019050818103600083015261450f816144d3565b9050919050565b7f4576656e742063616e206e6f742062652063616e63656c6c6564206265666f7260008201527f6520736574746564206461746500000000000000000000000000000000000000602082015250565b6000614572602d83613b0a565b915061457d82614516565b604082019050919050565b600060208201905081810360008301526145a181614565565b9050919050565b60006145c36145be6145b98461349b565b6138ab565b613465565b9050919050565b6145d3816145a8565b82525050565b60006040820190506145ee60008301856135c1565b6145fb60208301846145ca565b9392505050565b7f4661696c656420746f207472616e7366657220746f6b656e7320746f2063757360008201527f746f6d6572000000000000000000000000000000000000000000000000000000602082015250565b600061465e602583613b0a565b915061466982614602565b604082019050919050565b6000602082019050818103600083015261468d81614651565b9050919050565b7f4661696c656420746f207472616e7366657220746f6b656e7320746f2063726560008201527f61746f7200000000000000000000000000000000000000000000000000000000602082015250565b60006146f0602483613b0a565b91506146fb82614694565b604082019050919050565b6000602082019050818103600083015261471f816146e3565b9050919050565b7f536f6c64206f7574000000000000000000000000000000000000000000000000600082015250565b600061475c600883613b0a565b915061476782614726565b602082019050919050565b6000602082019050818103600083015261478b8161474f565b9050919050565b60006060820190506147a760008301866135c1565b6147b460208301856135c1565b6147c160408301846145ca565b949350505050565b7f4661696c656420746f207472616e7366657220746f6b656e7300000000000000600082015250565b60006147ff601983613b0a565b915061480a826147c9565b602082019050919050565b6000602082019050818103600083015261482e816147f2565b9050919050565b600060a08201905061484a60008301886135c1565b61485760208301876135d0565b6148646040830186613881565b6148716060830185613991565b61487e6080830184613991565b9695505050505050565b7f4576656e742073746174757320646966666572732066726f6d207375626d697460008201527f7465640000000000000000000000000000000000000000000000000000000000602082015250565b60006148e4602383613b0a565b91506148ef82614888565b604082019050919050565b60006020820190508181036000830152614913816148d7565b9050919050565b7f4661696c656420746f20726566756e64206576656e7420726571756573740000600082015250565b6000614950601e83613b0a565b915061495b8261491a565b602082019050919050565b6000602082019050818103600083015261497f81614943565b9050919050565b7f4576656e74206973206e6f7420617661696c61626c6500000000000000000000600082015250565b60006149bc601683613b0a565b91506149c782614986565b602082019050919050565b600060208201905081810360008301526149eb816149af565b9050919050565b7f5469636b6574207072696365206973206c657373207468616e20616c6c6f776560008201527f6400000000000000000000000000000000000000000000000000000000000000602082015250565b6000614a4e602183613b0a565b9150614a59826149f2565b604082019050919050565b60006020820190508181036000830152614a7d81614a41565b9050919050565b7f4461797320616d6f756e74206973206c657373207468616e20616c6c6f776564600082015250565b6000614aba602083613b0a565b9150614ac582614a84565b602082019050919050565b60006020820190508181036000830152614ae981614aad565b9050919050565b7f43616e63656c6174696f6e20646174652073686f756c64206265206561726c6960008201527f6572207468616e20737461727400000000000000000000000000000000000000602082015250565b6000614b4c602d83613b0a565b9150614b5782614af0565b604082019050919050565b60006020820190508181036000830152614b7b81614b3f565b9050919050565b7f526571756573746564206576656e742063616e277420626520696e207468652060008201527f7061737400000000000000000000000000000000000000000000000000000000602082015250565b6000614bde602483613b0a565b9150614be982614b82565b604082019050919050565b60006020820190508181036000830152614c0d81614bd1565b9050919050565b7f43616e63656c20646174652073686f756c64206265206174206c65617374206f60008201527f6e6520646179206265666f726520746865207374617274206461746500000000602082015250565b6000614c70603c83613b0a565b9150614c7b82614c14565b604082019050919050565b60006020820190508181036000830152614c9f81614c63565b9050919050565b7f526571756573746564206576656e7420697320746f6f2066617220696e20746860008201527f6520667574757265000000000000000000000000000000000000000000000000602082015250565b6000614d02602883613b0a565b9150614d0d82614ca6565b604082019050919050565b60006020820190508181036000830152614d3181614cf5565b9050919050565b7f526571756573746564206576656e74206f7665726c617073207769746820657860008201527f697374696e670000000000000000000000000000000000000000000000000000602082015250565b6000614d94602683613b0a565b9150614d9f82614d38565b604082019050919050565b60006020820190508181036000830152614dc381614d87565b9050919050565b7f4d6178207469636b657473206d7573742062652067726561746572206f72206560008201527f7175616c206d696e207469636b65747300000000000000000000000000000000602082015250565b6000614e26603083613b0a565b9150614e3182614dca565b604082019050919050565b60006020820190508181036000830152614e5581614e19565b9050919050565b7f56616c756573206d7573742062652067726561746572207468616e207a65726f600082015250565b6000614e92602083613b0a565b9150614e9d82614e5c565b602082019050919050565b60006020820190508181036000830152614ec181614e85565b9050919050565b7f537461727420646174652073686f756c6420626520616674657220696e69746960008201527f616c206f66667365740000000000000000000000000000000000000000000000602082015250565b6000614f24602983613b0a565b9150614f2f82614ec8565b604082019050919050565b60006020820190508181036000830152614f5381614f17565b9050919050565b7f456e6420646174652073686f756c6420626520616674657220696e697469616c60008201527f206f666673657400000000000000000000000000000000000000000000000000602082015250565b6000614fb6602783613b0a565b9150614fc182614f5a565b604082019050919050565b60006020820190508181036000830152614fe581614fa9565b9050919050565b7f44617465732073686f756c6420646966666572206174206c6561737420666f7260008201527f206f6e6520646179000000000000000000000000000000000000000000000000602082015250565b6000615048602883613b0a565b915061505382614fec565b604082019050919050565b600060208201905081810360008301526150778161503b565b9050919050565b7f43616e206e6f7420616c6c6f63617465206f7665726c617070696e672064617460008201527f652072616e676573000000000000000000000000000000000000000000000000602082015250565b60006150da602883613b0a565b91506150e58261507e565b604082019050919050565b60006020820190508181036000830152615109816150cd565b9050919050565b600060408201905061512560008301856135c1565b6151326020830184613881565b9392505050565b600061514482613465565b91507fffffffffffffffffffffffffffffffffffffffffffffffffffffffffffffffff820361517657615175613fd6565b5b60018201905091905056fea2646970667358221220ec2d5af2a6edd02ac1c5d42b5f3b47a1dde1d678380a3f9d890086b631db46d364736f6c634300081c0033",
  "linkReferences": {},
  "deployedLinkReferences": {}
}